:020000040800F2
:100000003009002045010008A1200008A3200008B5
:10001000A7200008AB200008AF2000080000000067
:10002000000000000000000000000000B3200008F5
:10003000B520000800000000B7200008B920000823
:100040005F0100085F0100085F0100085F01000810
:100050005F0100085F0100085F0100085F01000800
:100060005F0100085F0100085F0100085F010008F0
:100070005F0100085F0100085F0100085F010008E0
:100080005F0100085F0100085F0100085F010008D0
:100090005F0100085F0100085F0100085F010008C0
:1000A0005F0100085F0100085F0100085F010008B0
:1000B0004D2400085F010008652400085F01000866
:1000C0005F0100085F0100085F0100085F01000890
:1000D0005F0100085B6B00085F0100080B2200084D
:1000E0005F0100085F0100085F0100085F01000870
:1000F0005F0100085F0100085F0100085F01000860
:100100005F0100085F0100085F0100085F0100084F
:100110005F0100085F0100085F0100085F0100083F
:100120005F0100085F0100085F0100085F0100082F
:10013000DFF80CD007F0F0F900480047491D00082F
:10014000300900200648804706480047FEE7FEE7E2
:10015000FEE7FEE7FEE7FEE7FEE7FEE7FEE7FEE777
:1001600047020008310100080CB500200190009002
:100170006C48006840F480306A49086000BF6948F4
:10018000006800F4003000900198401C0190009835
:1001900018B90198B0F5A06FF1D16248006800F479
:1001A000003010B10120009001E000200090009884
:1001B000012843D15C48006840F010005A490860AB
:1001C0000846006820F0030008600846006840F018
:1001D0000200086053484068524948600846406839
:1001E00048600846406840F48060486008464068BF
:1001F00020F47C1048600846406840F4E8104860ED
:100200000846006840F08070086000BF45480068FC
:1002100000F000700028F9D04248406820F0030048
:10022000404948600846406840F00200486000BF0E
:100230003C48406800F00C000828F9D10CBD10B50E
:10024000FFF792FF10BD10B53648006840F001007E
:1002500034490860084640683449084031494860DC
:1002600008460068324908402E4908600846006880
:1002700020F4802008600846406820F4FE004860B2
:100280004FF41F008860FFF7DAFF4FF00060294944
:10029000086010BD10B5002100200022214B5B68D2
:1002A00003F00C0121B1042906D0082928D107E068
:1002B000214B224C236027E01F4B204C236023E07E
:1002C000184B5B6803F47010164B5B6803F48032C4
:1002D000022303EB904022B9194B4343174C236090
:1002E0000DE0104B5B6803F4003323B1144B434320
:1002F000124C236003E0104B4343104C236003E097
:100300000D4B0E4C236000BF00BF064B5B68C3F370
:1003100003130C4CE15C094B1B68CB40074C23607A
:1003200010BD000000100240002002400000FFF855
:10033000FFFFF6FE08ED00E000127A00000000204A
:1003400000093D000400002031490143314A116099
:10035000704770B5002100230F22C47804B32D4CE0
:10036000246804F4E064C4F5E064210AC1F10403E4
:10037000CA40447804FA03F1847814402143090107
:10038000254C0678A155047804F01F050124AC40E3
:1003900005786D11AD0005F1E025C5F8004109E0D3
:1003A000047804F01F050124AC401C4D067876113A
:1003B00045F8264070BD1A4A0A400243154B1B1FE0
:1003C0001A60704739B1134A121D12680243114B6B
:1003D0001B1D1A6006E00F4A121D126882430D4B66
:1003E0001B1D1A607047042808D14FF0E0210969ED
:1003F00041F004014FF0E022116107E04FF0E021ED
:10040000096921F004014FF0E022116170470000FA
:100410000000FA050CED00E000E400E080E100E0FF
:1004200080FFFF1F10B50446CC48844208D101214B
:10043000042000F02DFB0021042000F029FB46E001
:10044000C748844208D10121082000F021FB002187
:10045000082000F01DFB3AE0C248844208D1012187
:10046000102000F015FB0021102000F011FB2EE001
:10047000BD48844208D10121202000F009FB002161
:10048000202000F005FB22E0B848844208D1012179
:10049000402000F0FDFA0021402000F0F9FA16E0BB
:1004A000B348844208D10121802000F0F1FA0021F4
:1004B000802000F0EDFA0AE0AE48844207D1012125
:1004C000801500F0E5FA0021A01500F0E1FA10BD5A
:1004D00010B50121084600F0DBFA0021012000F0F0
:1004E000D7FA10BD2DE9F041024600250026002074
:1004F00000230024002791F803C00CF00F0591F8A9
:1005000003C00CF0100CBCF1000F03D091F802C036
:100510004CEA050591F800C0BCF1000F31D0146819
:1005200000202BE04FF0010C0CFA00F3B1F800C0F2
:100530000CEA03069E4220D183004FF00F0C0CFA08
:1005400003F7BC4305FA03FC4CEA040491F803C02A
:10055000BCF1280F06D14FF0010C0CFA00FCC2F8D8
:1005600014C00AE091F803C0BCF1480F05D14FF068
:10057000010C0CFA00FCC2F810C0401C0828D1D3B2
:100580001460B1F800C0BCF1FF0F34DD54680020E6
:100590002EE000F1080C4FF0010808FA0CF3B1F856
:1005A00000C00CEA03069E4221D183004FF00F0CDD
:1005B0000CFA03F7BC4305FA03FC4CEA040491F877
:1005C00003C0BCF1280F05D100F1080C08FA0CF8A3
:1005D000C2F8148091F803C0BCF1480F07D100F1B4
:1005E000080C4FF0010808FA0CF8C2F81080401C03
:1005F0000828CED35460BDE8F0814FF6FF7101802A
:10060000022181700421C170704702460020936866
:100610000B400BB1012000E00020704701468868C4
:1006200080B2704702460020D3680B400BB1012016
:1006300000E0002070470146C86880B27047016141
:100640007047416170470AB1016100E04161704744
:10065000C16070474FF480320A43826181618261D8
:1006600082698269704702460020434B18684FF642
:100670008073184040EA021008433F4B18607047EF
:100680003E49C8617047F0B50A46002300240021A6
:10069000002500F00046B6F1004F02D1364EF16958
:1006A00001E0354E7168C0F3034583B200F4401693
:1006B000B6F5401F08D121F070612F4E766826F004
:1006C00070662D4F7E6012E000F48016B6F5801F34
:1006D00006D1032606FA05F4A14341F0706106E055
:1006E000460D360103FA06F6B14341F0706122B1BE
:1006F000460D360103FA06F6314300F00046B6F126
:10070000004F02D11C4EF16101E01B4E7160F0BD43
:1007100030B500228B071C0F0F2303FA04F2164B8F
:1007200008338C1053F824309343134C08348D1045
:1007300044F8253023468C1053F824308C07240FBE
:1007400000FA04F423430C4C08348D1044F825308F
:1007500030BD0A49DC3108607047000000080140E4
:10076000000C01400010014000140140001801403D
:10077000001C014000200140000001400000204218
:10078000DF48006840F00100DD4908600846406825
:10079000DC490840DA49486008460068DA49084000
:1007A000D74908600846006820F4802008600846A1
:1007B000406820F4FE0048604FF41F0088607047D6
:1007C000CF49096821F48031CD4A1160114609688A
:1007D00021F480211160B0F5803F03D0B0F5802F67
:1007E0000ED106E0C649096841F48031C44A11605F
:1007F00007E0C349096841F4A021C14A116000E043
:1008000000BF00BF704710B5014600220023002042
:100810004A11012A02D1BA4C236806E0022A02D109
:10082000B74C236A01E0B64C636A01F01F02012451
:1008300094401C400CB1012000E0002010BD38B5F0
:10084000002000900024002500BF3120FFF7DBFFCF
:1008500005460098401C00900098B0F5A06F01D0AC
:10086000002DF2D03120FFF7CEFF08B1012400E0C7
:100870000024204638BD01460020A14A106820F01F
:10088000F80040EAC10010607047A0490860704756
:10089000024600209A4B586820F47C1042EA01037B
:1008A0001843974B5860704798490866704701464F
:1008B0000020934A506820F00300084350607047BE
:1008C0008F48406800F00C007047014600208C4AB9
:1008D000506820F0F0000843506070470146002047
:1008E000874A506820F4E060084350607047014632
:1008F0000020834A506820F4605040EAC1005060F4
:10090000704729B17E4A527A02437D4B5A7204E005
:100910007B4A527A82437A4B5A7270477B49D8316C
:100920000860704701460020754A506820F4404036
:100930000843506070470021714A20321170704A9C
:1009400082F82010012802D004280AD104E00121F5
:100950006B4A2032117005E00521694A203211707E
:1009600000E000BF00BF70476949086070476449F4
:10097000096A0143624A1162704765494439086057
:10098000704730B500210022002400235C4D6D68C3
:1009900005F00C0121B1042905D0082923D105E077
:1009A0005C4D056022E05B4D05601FE0544D6D68B5
:1009B00005F47012524D6D6805F48034022505EB84
:1009C00092421CB9544D554305600BE04C4D6D6887
:1009D00005F400351DB1504D5543056002E04D4D05
:1009E0005543056002E04B4D056000BF00BF444D1C
:1009F0006D6805F0F0010909484D6B5C0568DD4044
:100A000045603F4D6D6805F4E061090A434D6B5C3C
:100A10004568DD4085603A4D6D6805F46051C90A4E
:100A20003E4D6B5C4568DD40C560354D6D6805F435
:100A30004041890B3A4D6B5CC568B5FBF3F5056128
:100A400030BD29B12E4A526902432D4B5A6104E050
:100A50002B4A526982432A4B5A61704729B1284A6E
:100A600092690243264B9A6104E0254A92698243C7
:100A7000234B9A61704729B1214AD2690243204B26
:100A8000DA6104E01E4AD26982431D4BDA61704785
:100A900029B11B4AD2680243194BDA6004E0184AB4
:100AA000D2688243164BDA60704729B1144A126942
:100AB0000243134B1A6104E0114A12698243104B3E
:100AC0001A61704712494039086070470F49C8647D
:100AD00070470B49C87170470948406A40F0807000
:100AE00007494862704701460020054A92680A405B
:100AF0000AB1012000E00020704701498872704768
:100B0000001002400000FFF8FFFFF6FE0000424226
:100B10008004424200127A0000093D0014000020C7
:100B20002400002010B50446FE48844208D101216B
:100B3000C014FFF7ADFF0021E014FFF7A9FFC4E0E8
:100B4000B4F1804F08D101210846FFF7AEFF002124
:100B50000120FFF7AAFFB8E0F348844208D1012141
:100B60000220FFF7A2FF00210220FFF79EFFACE06A
:100B7000EE48844208D101210420FFF796FF0021AE
:100B80000420FFF792FFA0E0E948844208D1012148
:100B90000820FFF78AFF00210820FFF786FF94E076
:100BA000E448844208D101211020FFF77EFF002194
:100BB0001020FFF77AFF88E0DF48844208D1012146
:100BC0002020FFF772FF00212020FFF76EFF7CE05E
:100BD000DA48844208D101214014FFF759FF00216F
:100BE0006014FFF755FF70E0D548844209D1012118
:100BF000C804FFF74DFF00214FF40020FFF748FF26
:100C000063E0D048844209D101210805FFF740FF85
:100C100000214FF48010FFF73BFF56E0CA488442A2
:100C200009D101214805FFF733FF00214FF40010DF
:100C3000FFF72EFF49E0C548844208D1012140203A
:100C4000FFF733FF00214020FFF72FFF3DE0C048B2
:100C5000844208D101218020FFF727FF0021802056
:100C6000FFF723FF31E0BB48844208D10121801502
:100C7000FFF71BFF0021A015FFF717FF25E0B6487F
:100C8000844209D101210804FFF702FF00214FF43B
:100C90008030FFF7FDFE18E0B048844209D1012101
:100CA0004804FFF7F5FE00214FF40030FFF7F0FE97
:100CB0000BE0AB48844208D101218804FFF7E8FE2D
:100CC00000214FF48020FFF7E3FE10BD00220288D0
:100CD000944B98420ED0994B98420BD0B0F1804F74
:100CE00008D0914B984205D0904B984202D0904B3F
:100CF000984204D14FF68F731A404B881A438D4B9C
:100D0000984207D08C4B984204D04FF6FF431A40CC
:100D1000CB881A4302808B8883850B880385814B9F
:100D200098420BD0854B984208D08B4B984205D007
:100D30008A4B984202D08A4B984201D10B7A0386A3
:100D400001238382704770B5002400220023058CA4
:100D50004FF6FE7635400584028C8388048B4FF66F
:100D60008F752C40B51E2C400D882C43751E2A40D3
:100D70000D892A434D882A436A4DA8420BD06F4DF6
:100D8000A84208D0744DA84205D0744DA84202D0A4
:100D9000734DA84213D14FF6F7752A404D892A4367
:100DA0004FF6FB752A408D882A434FF6FF652B408E
:100DB0004FF6FF552B408D892B43CD892B438380E4
:100DC0000483CD888586028470BD70B5002400221E
:100DD0000023058C4FF6EF7635400584028C83881E
:100DE000048B48F6FF752C404FF6FF452C400D88CC
:100DF0004FF6FF7606EA05252C434FF6DF752A40AD
:100E00000D8906EA05152A434D8806EA05152A4389
:100E1000444DA84202D0494DA8421DD14FF67F75DE
:100E20002A404D894FF6FF7606EA05152A434FF60C
:100E3000BF752A408D8806EA05152A434FF6FF350F
:100E40002B404FF2FF752B408D8906EA85052B4319
:100E5000CD8906EA85052B4383800483CD880587E9
:100E6000028470BD70B5002400220023058C4FF66B
:100E7000FF6635400584028C8388848B4FF68F751E
:100E80002C404FF6FC752C400D882C434FF6FF5537
:100E90002A400D894FF6FF7606EA05252A434D883C
:100EA00006EA05252A431F4DA84202D0234DA84239
:100EB0001DD14FF2FF752A404D894FF6FF7606EAA5
:100EC00005252A434FF6FF352A408D8806EA052579
:100ED0002A434EF6FF752B404DF6FF752B408D894A
:100EE00006EA05152B43CD8906EA05152B438380B9
:100EF0008483CD888587028470BD70B5002200236D
:100F00000024058C4EF6FF7635400584038C8488DA
:100F1000828B48F6FF752A404FF6FF452A400D8820
:100F200020E00000002C01400004004000080040C8
:100F3000000C00400010004000140040003401404C
:100F4000004C014000500140005401400018004096
:100F5000001C0040002000400040014000440140CF
:100F6000004801404FF6FF7606EA05252A434DF674
:100F7000FF752B400D8906EA05352B434D8806EA9F
:100F800005352B43FA4DA84202D0FA4DA84208D1AC
:100F90004BF6FF752C408D894FF6FF7606EA8515D6
:100FA0002C4384808283CD88A0F84050038470BD98
:100FB000828B4FF2FF331A408283828B4FF6FF738E
:100FC00003EA01231A4382837047F0B50C461546A5
:100FD000002200210026078C4EF6FF7C07EA0C0752
:100FE0000784828B018C4FF6FF7707EA043640F6C0
:100FF000FF473A404FF6FF7707EA05273A434FF697
:10100000FF7707EA03373A43D94FB8420ED0D94F9A
:10101000B8420BD0B0F1804F08D0D74FB84205D0BE
:10102000D64FB84202D0D64FB84206D14DF6FF7720
:10103000394046F48057394305E047F6FF573940B9
:1010400044F48057394382830184F0BD828B4FF68C
:10105000F3731A408283828B0A4382837047F0B510
:101060000C461546002200210026078C4FF6FF6C27
:1010700007EA0C070784828B018C4FF6FF7707EA9B
:1010800004264FF60C773A404FF6FF7707EA03172E
:101090002F433A43B64FB8420ED0B64FB8420BD0AA
:1010A000B0F1804F08D0B44FB84205D0B34FB8422A
:1010B00002D0B34FB84206D14FF6FF57394046F43D
:1010C0008077394305E04FF2FF57394044F4807789
:1010D000394382830184F0BD028B4FF2FF331A4003
:1010E0000283028B4FF6FF7303EA01231A43028344
:1010F0007047F0B50C461546002200210026078CEB
:101100004FF6EF7C07EA0C070784028B018C4FF641
:10111000FF7707EA041640F6FF473A404FF6FF779D
:1011200007EA03373A434FF6FF7707EA05273A43C2
:101130008F4FB8420ED08F4FB8420BD0B0F1804FD6
:1011400008D08D4FB84205D08C4FB84202D08C4F9A
:10115000B84206D14FF6DF77394046F010073943E1
:1011600005E04FF65F77394044F0100739430283BA
:101170000184F0BD028B4FF6F3731A400283028B99
:101180000A4302837047F0B50C4615460022002141
:10119000068C4FF6FE773E400684028B018C4FF69C
:1011A0000C7632407E1C06EA03162E433243704E04
:1011B000B0420ED06F4EB0420BD0B0F1804F08D08D
:1011C0006D4EB04205D06D4EB04202D06C4EB04272
:1011D00006D14FF6FD76314044F00106314305E07B
:1011E0004FF6F576314044F0010631430283018425
:1011F000F0BD70B505460C465D4885420ED05D4891
:1012000085420BD0B5F1804F08D05B48854205D0B0
:101210005A48854202D05A48854200D100E000BFBA
:10122000208850B92389A28861882846FFF7ABFF40
:10123000E1882846FFF79EFF25E0208804280AD190
:101240002389A28861882846FFF753FFE188284652
:10125000FFF742FF17E0208808280AD12389A288D7
:1012600061882846FFF7FBFEE1882846FFF7EEFE7F
:1012700009E02389A28861882846FFF7A6FEE18855
:101280002846FFF795FE70BD2DE9F04105460C4656
:1012900000260127608808B9022600E00026A08801
:1012A000012801D1022700E001272088A0B9238965
:1012B000A28861882846FFF766FFE1882846FFF785
:1012C00059FF23893A4631462846FFF712FFE18845
:1012D0002846FFF701FF13E02389A288618828468A
:1012E000FFF707FFE1882846FFF7F6FE23893A4615
:1012F00031462846FFF747FFE1882846FFF73AFFC7
:10130000BDE8F0810A884B881A438B881A43CB8842
:101310001A430B891A434B891A438B891A43A0F845
:10132000442070474FF6FF71818000210180C18009
:101330004180017270470021018041808180C1801D
:10134000018141818181C1817047002101804180FB
:10135000012181800021C18001817047002101802D
:1013600041808180C180018141818181704700007D
:10137000002C0140003401400004004000080040FF
:10138000000C004021B1028842F00102028004E01A
:1013900002884FF6FE731A400280704731B1B0F8F0
:1013A000442042F40042A0F8442005E0B0F8442074
:1013B000C2F30E02A0F8442070471AB183890B4390
:1013C000838102E083898B438381704781827047E8
:1013D00041EA0203A0F8483070471AB183890B43F1
:1013E000838102E083898B438381704701894FF6B3
:1013F000F8721140018170470A46002101894FF6B9
:101400008F73194011430181704730B504460D4672
:1014100029462046FFF7F0FF208940F00700208191
:1014200030BD2DE9F04104460D4616461F46602D9D
:1014300006D13B46012231462046FFF75AFE05E021
:101440003B46012231462046FFF79DFE29462046B5
:10145000FFF7D2FF208940F007002081BDE8F0812E
:1014600030B50C4600210189C9B24FF6FF7505EA77
:101470000325154325432943018130BD2DE9F04162
:1014800005460E4617469846002443463A463146DE
:101490002846FFF7E5FF2C894FF6F870044044F02A
:1014A00007044FF68F70044044F070042C81BDE8AF
:1014B000F081F0B504460D4616461F463B463246BF
:1014C00029462046FFF7CCFF208940F48040208148
:1014D000F0BD0185828270470A46002101884FF6DF
:1014E0008F731940114301807047F0B50C461546C3
:1014F0001E460021002200230189028B038C4FF637
:10150000F877394021434FF6FC473A4040F2011743
:101510003A434FF6DD773B404FF6FF7707EA061771
:101520002F433B43018102830384F0BD0A4600211F
:10153000018B4FF68F7319401143018370470A46A0
:101540000021018B48F6FF7319404FF6FF7303EA41
:1015500002231943018370470A460021818B4FF60D
:101560008F7319401143818370470A460021818B94
:1015700048F6FF7319404FF6FF7303EA022319433D
:101580008183704721B1028842F08002028004E02A
:1015900002884FF67F731A400280704721B182881B
:1015A00042F00402828004E082884FF6FB731A4006
:1015B0008280704721B1828842F00802828004E074
:1015C00082884FF6F7731A408280704721B1828873
:1015D00042F00102828004E082884FF6FE731A40D6
:1015E000828070470A460021018B4FF6F77319403D
:1015F0001143018370470A460021018B4FF2FF73AC
:1016000019404FF6FF7303EA022319430183704721
:101610000A460021818B4FF6F773194011438183ED
:1016200070470A460021818B4FF2FF7319404FF635
:10163000FF7303EA02231943818370470A4600219E
:10164000018B4FF6FB7319401143018370470A4623
:101650000021018B4FF6FF3319404FF6FF7303EA69
:1016600002231943018370470A460021818B4FF6FC
:10167000FB7319401143818370470A460021818B17
:101680004FF6FF3319404FF6FF7303EA0223194365
:10169000818370470A460021018B4FF67F73194002
:1016A0001143018370470A460021018BC1F30E01EB
:1016B0004FF6FF7303EA02231943018370470A467A
:1016C0000021818B4FF67F7319401143818370474E
:1016D0000A460021818BC1F30E014FF6FF7303EA26
:1016E00002231943818370470A460021018C4FF67B
:1016F000FD7319401143018470470A460021018C93
:101700004FF6F77319401143018470470A460021D0
:10171000018C4FF6DF7319404FF6FF7303EA021393
:101720001943018470470A460021018C4FF67F73EC
:1017300019404FF6FF7303EA0213194301847047FF
:101740000A460021018C4FF6FF5319404FF6FF73F4
:1017500003EA02231943018470470A460021018CE1
:101760004FF2FF7319404FF6FF7303EA0223194348
:10177000018470470A460021018C4DF6FF73194021
:101780004FF6FF7303EA023319430184704730B503
:10179000002301248C40A3B2048C9C430484048C59
:1017A00002FA01F5ADB22C43048430BD30B50023FC
:1017B00004248C40A3B2048C9C430484048C02FA5D
:1017C00001F5ADB22C43048430BD70B50346002052
:1017D00000241846183001258D40ACB21D8CA5435D
:1017E0001D8409B1082909D100EB6100056825F0C5
:1017F000700505600568154305600EE00D1FC5F313
:101800004E052844056825F4E045056005684FF657
:10181000FF7606EA02263543056070BD21B10288D5
:1018200042F00202028004E002884FF6FD731A4083
:101830000280704721B1028842F00402028004E075
:1018400002884FF6FB731A400280704721B18288EC
:1018500042F08002828004E082884FF67F731A4053
:101860008280704702884FF6F7731A400280028820
:101870000A430280704782884FF68F731A40828035
:1018800082880A438280704702894FF6F8731A40B3
:10189000028102890A430281704702894FF67F73F1
:1018A0001A40028102890A4302817047818470478D
:1018B00081857047818670470187704781877047AF
:1018C000A0F84010704702884FF6FF431A4002808C
:1018D00002880A43028070470146888E704701469D
:1018E000088F70470146888F70470146B1F8400065
:1018F00070470146888C70470146088D7047024644
:101900000020138A0B400BB1012000E0002070473B
:10191000CA430282704730B50246002000230024EB
:10192000158A05EA0103958905EA010413B10CB192
:10193000012000E0002030BDCA4302827047000051
:1019400010B50446FB48844209D101218803FFF702
:101950009FF800214FF48040FFF79AF832E0F648F4
:10196000844209D101214804FFF79FF800214FF478
:101970000030FFF79AF825E0F048844209D10121B0
:101980008804FFF792F800214FF48020FFF78DF8CC
:1019900018E0EB48844209D10121C804FFF785F81B
:1019A00000214FF40020FFF780F80BE0E548844267
:1019B00008D101210805FFF778F800214FF48010C5
:1019C000FFF773F810BD2DE9F04786B005460E46C7
:1019D0000024A24600BFA1460027B08900B100BF85
:1019E0002F462C8A4CF6FF700440F08804432C826A
:1019F000AC894EF6F3100440B088318908437189F0
:101A000008430443AC81AC8A4FF6FF400440B089E0
:101A10000443AC8201A8FEF7B4FFC648874202D156
:101A2000DDF810A001E0DDF80CA0A88900F400406A
:101A300040B10AEBCA0000EB0A1031684900B0FB64
:101A4000F1F807E00AEBCA0000EB0A1031688900E0
:101A5000B0FBF1F86420B8FBF0F004012009642128
:101A600001FB1089A88900F4004040B1322000EB4E
:101A7000C900B0FBF1F000F00700044308E0322099
:101A800000EB09106421B0FBF1F000F00F000443FB
:101A90002C8106B0BDE8F0874FF41651016000219B
:101AA0008180C18001810C214181002181817047A9
:101AB00010B502460020108A4FF2FF0318400B8831
:101AC0004C8823438C882343CC88234318431082BB
:101AD00010BD0021018041808180C180704721B10B
:101AE000828942F40052828104E082894DF6FF73BC
:101AF0001A4082817047F0B5034600240026002575
:101B0000002040F66A17B94200D100BF1846C1F361
:101B1000421401F01F06012707FA06F5012C01D136
:101B20000C3004E0022C01D1103000E014301AB166
:101B300007682F43076002E00768AF430760F0BD06
:101B40001AB1838A0B43838202E0838A8B438382A8
:101B50007047028A4FF6F0731A400282028A0A43E3
:101B60000282704782894FF2FF731A408281828914
:101B70000A438281704721B1828942F00202828148
:101B800004E082894FF6FD731A4082817047028A11
:101B90004FF6DF731A400282028A0A4302827047BC
:101BA00021B1028A42F48042028204E0028A4BF6AA
:101BB000FF731A4002827047C1F3080282807047A7
:101BC00001468888C0F308007047818941F001010F
:101BD00081817047028BD2B20283028B42EA0122DA
:101BE00002837047028B02F47F420283028B0A4316
:101BF0000283704721B1828A42F02002828204E08F
:101C0000828A4FF6DF731A408282704721B1828A3E
:101C100042F01002828204E0828A4FF6EF731A408B
:101C20008282704721B1828A42F00802828204E0F7
:101C3000828A4FF6F7731A408282704721B18289F7
:101C400042F40042828103E08289C2F30E02828163
:101C5000704721B1828A42F40062828204E0828A63
:101C60004FF2FF731A4082827047828A4FF6FB73ED
:101C70001A408282828A0A438282704721B1828A14
:101C800042F00202828204E0828A4FF6FD731A401B
:101C90008282704702460020B1F5007F00D100BF6C
:101CA00013880B400BB1012000E00020704701F4C5
:101CB0000072B2F5007F00D100BFCA4302807047B6
:101CC00070B50246002400230025002040F66A1665
:101CD000B14200D100BFC1F3421501F01F0301263C
:101CE00006FA03F3012D02D19689334006E0022D56
:101CF00002D1168A334001E0968A33400C12012645
:101D000006FA04F41688344013B10CB1012000E047
:101D1000002070BD10B50022002340F66A14A142D5
:101D200000D100BF0A1201249440A3B2DC43048016
:101D300010BD000000380140004400400048004051
:101D4000004C00400050004008B504F041FE4FF444
:101D5000FA7004F07AFE4FF4A060FEF7F5FA00F096
:101D600093FB04F0A2FD04F028F94FF4E13004F0F5
:101D7000A8FE4FF4165000F0F9F900F041FB0020E6
:101D800000F00DFC4FF4487004F05FFE00BF00F05F
:101D90001CFD0028FBD140F6B83004F056FE1DE0D3
:101DA0004FF4FA7004F051FE94480068C04394491F
:101DB000C1F8B40103F0F6FD044604B912E00C20AA
:101DC0000423224600210090084604F08CF90C23DD
:101DD0008CA204210A2004F0CAF900BF03F0E2FD3E
:101DE0000028DDD100BF04F0E8F840F6B83004F078
:101DF0002CFEE6E0884A8949894803F020FE894A9A
:101E000089498A4800F083FD894A8A498A4800F056
:101E1000A6FD022000F0FAFA40428849086004203A
:101E200000F0F4FA8649086086480068012817D156
:101E30008548006805F007FA0646844A844B04F09A
:101E4000E9FF044605F02AFA7F49086081497E4887
:101E5000006805F049FA22D27E487B4908601EE0FE
:101E60007D480068012817D17748006805F0EBF934
:101E70000646764A764B05F06EF8044605F00EFAF3
:101E80007149086075497048006805F023FA06D268
:101E900072486D49086002E000206B490860704894
:101EA0000068012810D181076E48006804F03CFFEB
:101EB0006C4908606C496B48006805F00BFA1BD24E
:101EC00069486849086017E068480068012810D12F
:101ED00081076448006804F0D5FE624908606449DF
:101EE0006048006805F000FA06D261485D49086064
:101EF00002E000205B4908604B48B0F9000005F0A3
:101F000011F904462246464801685A4803F0AEFEDD
:101F1000594908604C48006805F030F904462246EB
:101F2000474801684548006803F0CBFE5349086004
:101F30003C48B0F9000005F0F5F80446494801684E
:101F4000204603F008FF4E4908604B4800684B49A3
:101F5000096808444A49096808444A4908604648EB
:101F6000006846490968084445490968401A4649D5
:101F700008602B48006805F001F9044600F036FBC4
:101F8000424908700846007898B104F016F80C230E
:101F90003FA20421142004F0EAF800BF03F002FD80
:101FA0000028FBD141F2883004F04FFD04F005F821
:101FB00007E000F0FCFA344801683248006800F09D
:101FC00031FB17E738B52048006805F03CF90446B6
:101FD000012022460B4600210090084604F054F9E7
:101FE0002048006805F02FF90446012022460B46E0
:101FF0000021009004F048F938BD0000B4012242ED
:10200000000022426D707520696E697420666169F6
:102010006C757265210000003C0000203800002033
:102020003400002044000020420000204000002036
:102030004A000020480000204600002050000020F8
:102040005400002064000020740000209A9999999F
:102050009999B93F0000F041680000200000F0C1EC
:102060006C0000207800002000002CC270000020CE
:1020700000002C42CDCC1CC1580000205C00002088
:1020800060000020280000202C00002030000020EC
:102090006D6F746F72207475726E206F66662100AA
:1020A000704700BFFEE700BFFEE700BFFEE700BFCE
:1020B000FEE770477047704710B500F045F810BD57
:1020C00030B5264800684FF47A72B0FBF2F1B1F1F6
:1020D000807F01D301201DE021F07F40401E4FF0A2
:1020E000E022506150170F22002807DA13071D0E57
:1020F0001B4B00F00F04241F1D5503E013071C0E9B
:10210000184B1C5400BF00204FF0E02290610720C4
:102110001061002008B100BFFEE730BD01B51249D3
:102120000098086000BF104800680028FBD108BD77
:1021300010B50246002404E04FF47A70FFF7EEFF7A
:10214000521E9442F8D310BD0748006820B10648DB
:102150000068401E0449086070470000000000202D
:1021600018ED00E000E400E08000002010B586B02B
:10217000044601210820FEF771FC01218804FEF7C6
:102180007AFC4FF48060ADF8140003208DF816003F
:1021900018208DF8170005A94448FEF7A3F94FF45D
:1021A0000060ADF8140004208DF8170005A93F4821
:1021B000FEF798F927208DF8000000208DF8010027
:1021C00001208DF802008DF803006846FEF7C1F883
:1021D00001940020ADF80800ADF80A00ADF80C003D
:1021E000ADF810000C20ADF80E0001A93048FFF743
:1021F000EAFB012240F225512D48FFF77CFC01212A
:102200002B48FFF76CFC06B010BD10B540F225510D
:102210002748FFF755FD002847D02548FFF7D0FC99
:102220002449086008460068313805283CD2DFE8B8
:1022300000F0030F1A26310000201F49086001201A
:102240001E49086000201E4908601E4908602BE0F6
:1022500001201949086000201849086018490860E1
:102260001849086020E000201349086013490860FD
:1022700001201349086000201249086014E0002082
:102280000D4908600D4908600D49086001200D499D
:10229000086009E00020084908600849086008490A
:1022A00008600849086000BF00BF10BD000C014075
:1022B000004800404C00002064000020680000201E
:1022C0006C0000207000002000B587B00121084696
:1022D000FEF7D1FB01210520FEF7C0FB04208DF89D
:1022E0000F000320ADF80C008DF80E0003A9634821
:1022F000FEF7F8F804A8FFF715F80020ADF816006F
:10230000ADF812004FF6FF70ADF814000020ADF8E4
:10231000100004A94FF08040FEF7D8FC00231A46B5
:1023200003214FF08040FFF7E0F86846FFF70DF813
:102330000A20ADF8080069464007FEF75AFF012160
:102340008807FFF7E5FA012211469007FFF735F8F5
:1023500000214FF08040FFF7A9FA01218807FFF71D
:1023600011F807B000BD00B587B001210420FEF7C9
:1023700082FB01210920FEF771FB04208DF80F007C
:10238000C020ADF80C0003208DF80E0003A93C48D6
:10239000FEF7A8F804A8FEF7C5FF0020ADF8160068
:1023A000ADF812004FF6FF70ADF814000020ADF844
:1023B000100004A93348FEF789FC00231A460321C4
:1023C0003048FFF792F86846FEF7BFFF0A20ADF8E5
:1023D000080069462B48FEF70CFF01212948FFF74A
:1023E00097FA012211462748FEF7E7FF002125480A
:1023F000FFF75CFA01212348FEF7C4FF07B000BDD8
:1024000010B5FFF761FFFFF7AEFF10BD70B50546D1
:10241000022D02D0042D14D10AE04FF08040FFF7C6
:1024200068FA04B200214FF08040FFF73FFA0AE05B
:102430001448FFF75EFA04B200211248FFF736FA9B
:1024400001E0002400BF00BF204670BD10B501218F
:102450008807FFF760FA012803D101218007FFF701
:102460006BFA10BD10B501210648FFF754FA012898
:1024700003D101210348FFF75FFA10BD00080140B6
:10248000000C01400008004008B501211020FEF7B3
:10249000E5FA4FF40050ADF8000010208DF803006D
:1024A00003208DF8020069460448FEF71BF84FF43C
:1024B00000510248FEF7C5F808BD000000100140B9
:1024C00008B501210820FEF7C9FA10208DF8030095
:1024D0004FF47040ADF8000003208DF8020069460B
:1024E0006D48FDF7FFFF08BD10B588B00446012117
:1024F0000420FEF7B3FA4FF41060ADF81C0018206A
:102500008DF81F0003208DF81E0007A96348FDF712
:10251000E9FF0121C802FEF7A1FA0020ADF816007C
:10252000ADF8120041F61F40ADF814000020ADF8E0
:1025300010008DF8180004A95948FEF7C7FB4FF4A6
:102540008070ADF80C006020ADF800000020ADF800
:102550000E00ADF80A00ADF808000420ADF8040044
:102560000120ADF80200ADF8064069464C48FEF780
:10257000EAFB08214A48FFF735F869464848FEF764
:10258000BCFC08214648FFF74CF801214448FEF7FF
:10259000F9FE01214248FEF701FF08B010BD10B559
:1025A0000446FFF78DFF2046FFF79EFF10BD41F662
:1025B00058303C4909684242914202DA4142394A64
:1025C000116038490968814201DD364908603649A1
:1025D00009684242914202DA4142334A116032496B
:1025E0000968814201DD30490860704701460020DA
:1025F00011F1460F01DB3C290CDD012000222B4BA1
:102600001A602B4BC3F8BC21284B1B1F1A60284BA8
:10261000C3F8B02170470146002901DA484200E0C2
:102620000846704700B503460A462248007888BB32
:10263000002B08DD00201D49091D086001201C49F0
:10264000C1F8B80107E001201849091D0860002001
:102650001749C1F8B801002A08DD00201349091FF5
:10266000086001201249C1F8B00107E001200F49BC
:10267000091F086000200E49C1F8B0011846FFF795
:10268000CAFF0749343108801046FFF7C4FF0449E8
:102690004031088000BD0000000C014000080140EE
:1026A000002C0140280000202C000020B88121428D
:1026B000008021423000002070B505460C4600F035
:1026C000CBF9D02000F072FA00F003FA18B100F054
:1026D000E1F9012070BD284600F068FA00F0F9F930
:1026E000204600F063FA00F0F4F918B100F0D2F9D6
:1026F0000120EFE700F0CEF90020EBE770B50446CB
:102700000025BC2C01DB012510E0622C01DB022539
:102710000CE02A2C01DB032508E0142C01DB042546
:1027200004E00A2C01DB052500E0062529461A20D5
:10273000FFF7C2FF70BD70B50446B4F57A7F01DDC6
:102740004FF47A74042C00DA04244FF47A7090FB6E
:10275000F4F0401EC5B229461920FFF7ADFF05462B
:10276000264604EBD671C1F34F00FFF7C7FF70BDDB
:1027700070B5044600F070F9D02000F017FA00F0B0
:10278000A8F9204600F012FA00F0A3F900F064F96D
:10279000D12000F00BFA00F09CF9002000F02FFA95
:1027A000054600F077F9284670BD10B50446E006EE
:1027B000010E1C20FFF780FF10BD10B50446E00697
:1027C000010E1B20FFF778FF10BD10B500F02DF9AA
:1027D00080216B20FFF770FF642004F036F90021A0
:1027E0006B20FFF769FF0320FFF7E7FF0020FFF7EB
:1027F000DCFFC820FFF79FFF00213820FFF75CFFB8
:1028000000216A20FFF758FF00212320FFF754FF23
:1028100080213720FFF750FF7520FFF7A9FF0446FE
:10282000682C0BD101216B20FFF746FF00216C20A3
:10283000FFF742FF6420FFF77EFF01E0012010BD9B
:102840000020FCE72DE9F04106460F4614461D46E0
:1028500000F002F9002141EA4601C8B200F0A6F9F1
:1028600000F037F920B100F015F90120BDE8F08142
:10287000384600F09BF900F02CF900F0EDF801214A
:1028800001EB4601C8B200F091F900F022F90DE029
:10289000012C04D1002000F0B2F9287003E00120DF
:1028A00000F0ADF92870601EC4B26D1C002CEFD191
:1028B00000F0F0F80020D9E72DE9F84F6B4602222E
:1028C00041216820FFF7BEFF9DF801009DF8001030
:1028D00040EA01200FFA80FA504604F031FC8046AD
:1028E00000224B4B04F0AFFB06464A4A4A4B04F029
:1028F00091FA044604F0D2FC83464849584604F055
:1029000019FA044604F03AFC00B2BDE8F88F2DE94C
:10291000FC4104460D4616466B46062243216820BC
:10292000FFF790FF0746BFB99DF801009DF8001022
:1029300040EA012000B220809DF803009DF80210BB
:1029400040EA012000B228809DF805009DF804109F
:1029500040EA012000B230803846BDE8FC812DE914
:10296000FC4104460D4616466B4606223B21682074
:10297000FFF768FF0746BFB99DF801009DF80010FA
:1029800040EA012000B220809DF803009DF802106B
:1029900040EA012000B228809DF805009DF804104F
:1029A00040EA012000B230803846BDE8FC812DE9C4
:1029B000F04105460E461746984600F04DF80021B6
:1029C00041EA4501C8B200F0F1F800F082F820B108
:1029D00000F060F80120BDE8F081304600F0E6F834
:1029E00000F077F800240CE018F8040000F0DEF89E
:1029F00000F06FF818B100F04DF80120EBE7601C13
:102A0000C4B2BC42F0DB00F045F80020E3E7000070
:102A100000407540A4703D0AD74342400000C842C0
:102A200010B5022003F0EDFF10BD08B5012108200C
:102A3000FEF714F81820ADF8000010208DF8030000
:102A400003208DF8020069468548FDF74BFD1821EB
:102A50008348FDF7F4FD08BD10B58148006820F4F7
:102A600070207F4908600846006840F440300860E4
:102A700001207C4908607C49C1F88C01FFF7D0FF38
:102A8000002078490860FFF7CBFF00207649C1F8A5
:102A90008C0110BD10B57248006820F47020704998
:102AA00008600846006840F44030086000206D4926
:102AB000091F08606C49C1F89001FFF7B1FF0120C0
:102AC0006849091F08606849C1F89001FFF7A8FF2D
:102AD00010BD10B500246248006820F470206049E1
:102AE00008600846006840F40020086001205D4945
:102AF0000860FFF795FF01205B49C1F88C01FFF7E3
:102B00008FFF07E0601CC4B2FA2C03DDFFF7C2FFA1
:102B1000012010BD5348803800680028F2D1514987
:102B2000091F086000BFF4E710B500204D49091FD8
:102B300008604B48006820F4702049490860084646
:102B4000006840F44030086000204749C1F8900117
:102B5000FFF766FF01204349091F0860FFF760FF88
:102B600000204149C1F88C0110BD10B500203D493D
:102B7000091F08603A48006820F47020384908604E
:102B80000846006840F44030086001203649C1F82A
:102B90009001FFF745FF01203249091F0860FFF748
:102BA0003FFF00203049C1F88C0110BD70B50446CC
:102BB0002B48006820F47020294908600846006806
:102BC00040F44030086000202649091F08600025B5
:102BD00012E0E009234908606006040E0120224942
:102BE000C1F88C01FFF71CFF00201E49091F086077
:102BF000FFF716FF681CC5B2082DEADB70BD70B583
:102C0000054600241648006820F470201449086026
:102C10000846006840F400200860002615E0002007
:102C20001049091F0860FFF7FBFE01200E49C1F89B
:102C30008C016006040E0B488038006808B1601CE7
:102C4000C4B2FFF7EDFE701CC6B2082EE7DB15B963
:102C5000FFF78BFF01E0FFF767FF204670BD000024
:102C6000000C0140908121420080214210B5C82310
:102C70004FF48062F74940F6F63002F09BFC10BD3D
:102C800010B586B00446F4A000680390F3A0006875
:102C90000290F3A000680190F2A00068009004F098
:102CA000030003A9085C8DF8140003A8C4F3C10154
:102CB000405C8DF8150003A8C4F38111405C8DF8C9
:102CC000160004F0030002A9085C8DF8100002A8A9
:102CD000C4F3C101405C8DF8110002A8C4F3811156
:102CE000405C8DF8120005AA032140F2264002F054
:102CF000E7FB18B14FF0FF3006B010BD04AA032166
:102D000040F22A4002F0DCFB10B14FF0FF30F3E755
:102D1000019805900098049004F0040058B19DF8C3
:102D2000140040F001008DF814009DF8100040F0F0
:102D300001008DF8100004F0200058B19DF8150036
:102D400040F001008DF815009DF8110040F00100E1
:102D50008DF8110004F4807058B19DF8160040F011
:102D600001008DF816009DF8120040F001008DF86A
:102D7000120005AA03214FF4886002F0A1FB10B1F4
:102D80004FF0FF30B8E704AA032140F2314002F0CF
:102D900097FB10B14FF0FF30AEE7B348048100203D
:102DA000AAE71FB50446B048007A00F0030054F8C3
:102DB00020000190AC48007A00F0040010B10198A6
:102DC00040420190A848007AC0F3C10054F82000A6
:102DD0000290A548007A00F0200010B1029840420D
:102DE0000290A148007AC0F3811054F820000390AB
:102DF0009D48008900F4807010B103984042039010
:102E00009A49019880FB0101800F40EA81000190FE
:102E10009649029880FB0110820042EA917002906C
:102E20009249039880FB0110820042EA917003905E
:102E30000198000E8DF800000198000C8DF801003B
:102E40000198000A8DF802000198C0B28DF80300C5
:102E50006A4604214FF4747002F032FB18B14FF04F
:102E6000FF3004B010BD0298000E8DF800000298EB
:102E7000000C8DF801000298000A8DF802000298FB
:102E8000C0B28DF803006A4604214FF4757002F059
:102E900017FB10B14FF0FF30E3E70398000E8DF8F9
:102EA00000000398000C8DF801000398000A8DF8CB
:102EB00002000398C0B28DF803006A4604214FF463
:102EC000767002F0FDFACCE770B588B0064601A82E
:102ED00001F0FDFCBDF804000021C90341EA5045A2
:102EE000C4036148007A00F0030056F82000059002
:102EF0005D48007A00F0040010B10598404205904A
:102F00005948007AC0F3C10056F820000690564890
:102F1000007A00F0200010B1069840420690524816
:102F2000007AC0F3811056F8200007904E480089BF
:102F300000F4807010B10798404207900598C117BF
:102F4000A0FB042301FB043100FB0510810041EAD2
:102F5000927005900698C117A0FB042301FB043171
:102F600000FB0510810041EA927006900798C11796
:102F7000A0FB042301FB043100FB0510810041EAA2
:102F8000927007900598000E8DF808000598000CC7
:102F90008DF809000598000A8DF80A000598C0B25E
:102FA0008DF80B000698000E8DF80C000698000CAA
:102FB0008DF80D000698000A8DF80E000698C0B234
:102FC0008DF80F000798000E8DF810000798000C80
:102FD0008DF811000798000A8DF812000798C0B20A
:102FE0008DF8130002AA0C214FF4257002F068FA44
:102FF00008B070BD30B585B004461DA207CA02AB4B
:1030000007C3C82C03DD4FF0FF3005B030BDC8202A
:1030100090FBF4F0401E85B2280A8DF80000E8B25B
:103020008DF801006A46022140F2162002F048FAAB
:1030300010B14FF0FF30E8E702AA0C2140F6C120A2
:1030400002F03EFA10B14FF0FF30DEE7064884810F
:103050000020DAE7388200084CCD6C000CC92C0047
:1030600036567600264666005804002009E3CA0258
:10307000FEF2ABC4AAF1DFDFBBAFDFDF0146FC48E5
:1030800080890880002070472DE9FC4706460F46DE
:1030900006F0070010B1B7F5C86F03DD4FF0FF3041
:1030A000BDE8FC87384604F046F88146F14903F054
:1030B00073FE8046684601F08EFB9DF800000228F2
:1030C00006D0042816D0082826D0102848D135E08C
:1030D0004FF08D41404603F02DFE814604F067F825
:1030E00084B2E549404603F025FE814604F05FF8CE
:1030F00085B238E04FF08C41404603F01BFE81461C
:1031000004F055F884B2DD49404603F013FE8146D1
:1031100004F04DF885B226E04FF08B41404603F0B5
:1031200009FE814604F043F884B2D549404603F0D5
:1031300001FE814604F03BF885B214E04FF08A416D
:10314000404603F0F7FD814604F031F884B2CD49E2
:10315000404603F0EFFD814604F029F885B202E015
:103160004FF0FF309CE700BF20128DF80400E0B262
:103170008DF8050028128DF80600E8B28DF80700DA
:1031800006F00100A0B101AA02214FF4EA7002F09A
:1031900097F910B14FF0FF3082E70DF106020221DE
:1031A0004FF4927002F08CF910B14FF0FF3077E7D6
:1031B00006F00200A0B101AA02214FF4EC7002F067
:1031C0007FF910B14FF0FF306AE70DF106020221DE
:1031D0004FF4947002F074F910B14FF0FF305FE7D4
:1031E00006F00400A0B101AA02214FF4EE7002F033
:1031F00067F910B14FF0FF3052E70DF106020221DE
:103200004FF4967002F05CF910B14FF0FF3047E7D1
:10321000002045E738B504460020009004F0010086
:1032200020B19DF8000040F03000009004F0020052
:1032300020B19DF8000040F00C00009004F0040064
:1032400020B19DF8000040F0030000906A46012183
:103250004FF4A47002F034F938BD38B50446012C9F
:1032600001DA012402E0042C00DD0424601EC0B257
:1032700000906A46012140F24F1002F021F938BD5A
:1032800038B50446052094FBF0F085B228128DF87D
:103290000000E8B28DF801006A4602214FF4EF7099
:1032A00002F00EF938BD38B50446052094FBF0F065
:1032B00085B228128DF80000E8B28DF801006A4648
:1032C00002214FF4ED7002F0FBF838BDF8B5054669
:1032D0000E464FF47A7095FBF0F000FB06F4200EDA
:1032E0008DF80000200C8DF80100200A8DF80200F6
:1032F000E0B28DF803006A4604214FF4AE7002F08C
:10330000DFF8F8BD38B50446052094FBF0F084B230
:1033100020128DF80000E0B28DF801006A4602210B
:103320004FF4AD7002F0CCF838BD38B50446052036
:1033300094FBF0F084B220128DF80000E0B28DF81A
:1033400001006A4602214FF4AC7002F0B9F838BDB2
:1033500038B5044614B94FF0FF3038BD6A46042131
:103360004FF4587002F0E9F810B14FF0FF30F4E775
:103370009DF8000000069DF8011040EA01409DF80C
:10338000021040EA01209DF803100843206000204D
:10339000E3E738B50446200E8DF80000200C8DF8C8
:1033A0000100200A8DF80200E0B28DF803006A46A1
:1033B00004214FF4587002F083F838BD38B5044644
:1033C00014B94FF0FF3038BD6A4604214FF47170D4
:1033D00002F0B3F810B14FF0FF30F4E79DF80000B1
:1033E00000069DF8011040EA01409DF8021040EAF5
:1033F00001209DF80310084300EB8000800020604E
:103400000020E0E738B504461420B4FBF0F4200EA9
:103410008DF80000200C8DF80100200A8DF80200C4
:10342000E0B28DF803006A4604214FF4717002F097
:1034300047F838BD38B5044664B120208DF8000047
:1034400028208DF8010030208DF8020038208DF8FA
:10345000030004E0A3220421684603F0F4FB6A465B
:10346000042140F69E2002F02BF800F083FC38BDCA
:103470005804002000004843000040460000C045BA
:10348000000040450000C04438B5044664B1C02087
:103490008DF80000C2208DF80100C4208DF80200D4
:1034A000C6208DF8030004E08B220421684603F057
:1034B000CAFB6A46042140F6982002F001F800F0A9
:1034C00059FC38BD3EB504466CB1FDA1D1E90020E0
:1034D0008968CDE9002002916A4609214FF497607E
:1034E00001F0EEFF3EBDF9A2D2E900109268CDE9ED
:1034F000010200916A4609214FF4976001F0E0FF54
:10350000F0E73EB5044602208DF80000CA208DF891
:103510000100E3208DF8020009208DF803006A46BF
:103520000421682001F0CCFFA3208DF8000004F0F6
:10353000400048B1C0208DF80100C8208DF802007D
:10354000C2208DF8030006E0A3208DF801008DF85D
:1035500002008DF8030004F4C07048B1C4208DF857
:103560000400CC208DF80500C6208DF8060006E08A
:10357000A3208DF804008DF805008DF80600A32027
:103580008DF807008DF808008DF809006A460A21B9
:1035900040F6A72001F094FF04F0030018B12020AA
:1035A0008DF8000002E0D8208DF800006A46012165
:1035B00040F6B62001F084FF04F0200018B101208D
:1035C000FFF780FF02E00020FFF77CFF04F4C070EB
:1035D00008B304F4807060B1B2208DF800008B2035
:1035E0008DF80100B6208DF802009B208DF80300B5
:1035F0000BE0B0208DF8000080208DF80100B42091
:103600008DF8020090208DF803006A46042140F6F0
:10361000A22001F055FF04F0010020B3F8208DF83E
:1036200000006A4601214FF40B6001F049FFFA21C6
:103630000720FFF729FD0720FFF7ECFD0120FFF72A
:103640000CFE6420FFF71CFE4FF4FA70FFF72BFE10
:10365000C821A148FFF73AFE2820FFF753FE0A20B1
:10366000FFF763FE08E0D8208DF800006A460121CC
:103670004FF40B6001F024FF04F0020018B1D920D0
:103680008DF8000002E0D8208DF800006A46012184
:1036900040F23D7001F014FF04F0040018B1012065
:1036A000FFF7F2FE02E00020FFF7EEFE04F010004C
:1036B00018B10120FFF7BEFE02E00020FFF7BAFEBE
:1036C00044F008008549488100F054FB00208349FC
:1036D000887304F0400018B10846807B801D887311
:1036E00004F4C07020B17D48807B801D7B498873C5
:1036F00004F0140020B17948807B1030774988733A
:1037000004F0030020B17548807B001D7349887365
:1037100000203EBD01467148408908800020704766
:103720002DE9F0410446E07800F0C006E07800F0B2
:103730003F05607800F0010098B1EF102846E917C6
:1037400005EB5171C910A5EBC101491C01F0FF083F
:103750006248006820B16148414602683846904797
:1037600000BF607800F0080030B15C48406818B1D4
:10377000B0115A4A516888470020BDE8F08110B561
:1037800086B0044656A207CA03AB07C357A207CAAE
:103790008DE80700012C09D0022C0ED103AA0B21C1
:1037A00040F6822001F08CFE06B010BD6A460B2167
:1037B00040F6822001F084FEF6E74FF0FF30F3E799
:1037C0002DE9F04F8DB00746884615469946DDE94C
:1037D000166B0024002030804049887B5A4605A99A
:1037E00001F0D1F918B1601E0DB0BDE8F08F3B4873
:1037F000807A00F01400002861D09DF814000006C3
:103800009DF8151040EA01409DF8161040EA01208D
:103810009DF81710084328609DF8180000069DF8D1
:10382000191040EA01409DF81A1040EA01209DF865
:103830001B10084368609DF81C0000069DF81D10D1
:1038400040EA01409DF81E1040EA01209DF81F103B
:103850000843A8609DF8200000069DF8211040EA6A
:1038600001409DF8221040EA01209DF823100843F2
:10387000E86004F11000C4B2286800140190686880
:1038800000140290A86800140390E86800140490E3
:1038900001984043029901FB0100039901FB0100DB
:1038A000049901FB010ABAF1706F02DBBAF1885F7B
:1038B00022DD00F05FFA00203080401E94E721E016
:1038C000B8AAB38DB4980D355D000000B8AAAAAAB5
:1038D000B088C3C5C700000009E3CA02580400202D
:1038E000D8B1B9F38BA391B609B4D900DAB1B9F361
:1038F0008BA391B6DAB4DA00B6F9000040F4807018
:10390000308000BF3448807A00F0400020B305A921
:10391000601C085C095D40EA012000B2A8F80000C4
:1039200005A9E01C095C05AAA01C105C41EA002066
:1039300000B2A8F8020005A9601D095C201D105CFA
:1039400041EA002000B2A8F80400A01DC4B2B6F9F4
:10395000000040F0080030801F48408900F4C0702B
:1039600008B305A9601C085C095D40EA012000B2AB
:10397000388005A9E01C095C05AAA01C105C41EA7E
:10398000002000B2788005A9601D095C201D105C34
:1039900041EA002000B2B880A01DC4B2B6F9000010
:1039A00040F0700030800C48807A00F0030018B1BD
:1039B00005A90819FFF7B4FE484600F048FD0020AD
:1039C00012E70146044801600020704701460248A2
:1039D00041600020704700005804002038B50446BC
:1039E000F74890F82400C0B114B10220009001E023
:1039F00000200090F24A1268D17BF14A5268107898
:103A00006B460122FEF7D3FF10B14FF0FF3038BDF7
:103A10009DF80010EA48417423E0E948807A10B923
:103A20004FF0FF30F3E724B1E548407C08B10020B7
:103A3000EDE714B10120009001E000200090E04A81
:103A40001268D17BDE4A526810786B460122FEF77D
:103A5000AEFF10B14FF0FF30D9E79DF80010D84805
:103A600041740020D3E738B500241FE0D448006833
:103A7000C07AA04204D0D2480068407DA04200D164
:103A800012E0CF49496808786B4601222146FEF7CB
:103A9000D9FE10B14FF0FF3038BD9DF8002021460F
:103AA000C8A003F0C7FD00BF601CC4B2C448406892
:103AB0000079A042DADC0020EEE770B504460D463E
:103AC000BF480068C07AA04204D0BD480068407D6D
:103AD000A04202D14FF0FF3070BDB9484068007974
:103AE000A04202DC4FF0FF30F6E7B549496808789C
:103AF0002B4601222146FEF7A5FEEDE738B5044628
:103B0000AF4890F82300A04201D1002038BD14B185
:103B10003020009001E000200090A948807C20B176
:103B20009DF8000040F002000090A54890F82200A7
:103B300020B19DF8000040F080000090A04A12687B
:103B4000117D9F4A526810786B460122FEF72FFFC5
:103B500010B14FF0FF30D9E7994880F8234000209A
:103B6000D4E738B5044604F0700010B1012000908D
:103B700005E014B10020009001E040200090904A40
:103B80001268917C8E4A526810786B460122FEF7CB
:103B90000EFF20B100218A488172481E38BD9DF871
:103BA000000020F04001864801730020009004F0DE
:103BB000400020B99DF8000040F00400009004F09F
:103BC000200020B99DF8000040F00200009004F0B1
:103BD000100020B99DF8000040F00100009004F0B2
:103BE000080020B99DF8000040F038000090744AA9
:103BF0001268D17C724A526810786B460122FEF737
:103C0000D6FE20B100216E488172481EC6E724B15D
:103C1000082C02D00020FFF771FF69488472002150
:103C20000175322002F011FF0020B7E738B50446D5
:103C30006348807CA04201D1002038BD002C46D0D2
:103C40005F4A126811795E4A526810786B46012209
:103C5000FEF7F8FD10B14FF0FF30EEE79DF80000E1
:103C600020F020000090564A12681179544A526898
:103C700010786B460122FEF79AFE10B14FF0FF302C
:103C8000DBE7032002F0E1FE022000904C4890F8B0
:103C9000220020B19DF8000040F0800000904848CC
:103CA00090F8230020B19DF8000040F03000009013
:103CB000434A1268117D424A526810786B460122CD
:103CC000FEF775FE002851D04FF0FF30B5E73C4AB3
:103CD000126811793A4A526810786B460122FEF751
:103CE000B1FD10B14FF0FF30A7E73548807A00F002
:103CF000010028B19DF8000040F02000009004E091
:103D00009DF8000020F0200000902D4A12681179E3
:103D10002B4A526810786B460122FEF748FE10B11C
:103D20004FF0FF3089E7032002F08FFE244890F81F
:103D3000220010B18020009001E000200090204877
:103D400090F8230020B19DF8000040F03000009072
:103D50001B4A1268117D1A4A526810786B4601227C
:103D6000FEF725FE10B14FF0FF3066E7144884746B
:103D7000002062E708B51248807A10B94FF0FF3092
:103D800008BD002000900E4A1268D17B0C4A526890
:103D900010786B460122FEF70AFE10B14FF0FF309B
:103DA000EEE7074A12685179054A526810786B4667
:103DB0000122FEF7FCFD68B14FF0FF30E0E70000A4
:103DC00084000020252335783A20252335780D0AF4
:103DD00000000000F84A12681179F74A526810781A
:103DE0006B460122FEF7E3FD10B14FF0FF30C7E74D
:103DF000F14890F82400002853D00C200090EE4A9F
:103E000012681179EC4A526810786B460122FEF76D
:103E1000CEFD10B14FF0FF30B2E7322002F015FEB8
:103E2000C0200090E448807A00F0010020B19DF8A5
:103E3000000040F020000090DF4A12681179DE4A4D
:103E4000526810786B460122FEF7B1FD10B14FF0B9
:103E5000FF3095E7D848407C10B10220009001E087
:103E600000200090D44A1268D17BD34A526810785F
:103E70006B460122FEF79BFD10B14FF0FF307FE74C
:103E800000200090CC4A12685179CB4A52681078D1
:103E90006B460122FEF78BFD002855D04FF0FF3016
:103EA0006EE704200090C44A12681179C24A526831
:103EB00010786B460122FEF77AFD10B14FF0FF300B
:103EC0005EE7BD48807C20B9BB48807A00F00100E5
:103ED00010B94020009001E060200090B64A1268BE
:103EE0001179B54A526810786B460122FEF75FFDE2
:103EF00010B14FF0FF3043E7322002F0A6FDAE488C
:103F0000407C10B10120009001E000200090AA4AFE
:103F10001268D17BA84A526810786B460122FEF7DE
:103F200046FD10B14FF0FF302AE7A34A12685179DD
:103F3000A14A52681078A04B10330122FEF737FDDA
:103F400010B14FF0FF301BE7002019E770B50446B1
:103F5000002624F00104984890F8240008B10020BD
:103F600070BD9548807A10B94FF0FF30F8E792485D
:103F7000057C807A2040904908740846007CA04265
:103F800002D04FF0FF3600E0002614B98A48007DC9
:103F900018B10120FFF722FD02E00020FFF71EFD0F
:103FA0003CB1FFF7E7FE20B1834805744FF0FF30C6
:103FB000D6E73046D4E738B504467F48807A10B952
:103FC0004FF0FF3038BDBC2C02DB0120009015E023
:103FD000622C02DB0220009010E02A2C02DB03207E
:103FE00000900BE0142C02DB0420009006E00A2C69
:103FF00002DB0520009001E0062000906E48C07AA8
:104000009DF80010884201D10020DBE76A4A12685F
:104010009178694A526810786B460122FEF7C7FC16
:1040200010B14FF0FF30CDE79DF800106248C1722B
:104030000020C7E738B50446282C02DD4FF0FF30DA
:1040400038BDDCB90020FFF759FD00208DF80000D5
:1040500007208DF80100584A1268917C564A526830
:1040600010786B460222FEF7A2FC10B14FF0FF3031
:10407000E6E70021504801750020E1E70120FFF745
:104080003DFD20208DF80000012C06D100208DF888
:1040900001000520FFF78FFF17E0052C06DC01204B
:1040A0008DF801000520FFF786FF0EE0142C06DCDA
:1040B00002208DF801000A20FFF77DFF05E00320B4
:1040C0008DF801001420FFF776FF9DF8010007210D
:1040D00001EB8010C0B28DF80100374A1268917C64
:1040E000354A526810786B460222FEF760FC10B128
:1040F0004FF0FF30A4E708212F488172002101739F
:10410000012101750020FFF721FF002098E738B555
:1041100004462948807A10B94FF0FF3038BD264850
:1041200090F8240010B14FF0FF30F7E72248007DEF
:1041300050B134B1282C04DCE0B2FFF77BFF002043
:10414000ECE70020FFF776FF042C01DA042404E0FA
:10415000B4F57A7F01DD4FF47A744FF47A7090FBF6
:10416000F4F0401EC0B20090134A12685178124A0F
:10417000526810786B460122FEF719FC10B14FF01F
:10418000FF30CBE79DF80000401C4FF47A7191FBA3
:10419000F0F081B20848C1810146C9894810FFF793
:1041A0000AFF0020BAE738B504460348807A28B9E8
:1041B0004FF0FF3038BD000084000020022C06D0F4
:1041C000042C07D0082C08D0102C0CD108E00020BB
:1041D00000900BE00820009008E01020009005E01F
:1041E0001820009002E04FF0FF30E3E700BFF948ED
:1041F000407A9DF80010B0EBE10F01D10020D9E723
:10420000F44A1268D179F34A526810786B46012259
:10421000FEF7CDFB10B14FF0FF30CBE79DF800006B
:10422000C110EC4841720020C4E738B50446E948A3
:10423000807A10B94FF0FF3038BDFA2C09D0B4F5B0
:10424000FA7F09D0B4F57A7F09D0B4F5FA6F0CD1B2
:1042500008E0002000900BE00820009008E010200B
:10426000009005E01820009002E04FF0FF30E3E7F7
:1042700000BFD848007A9DF80010B0EBE10F01D1E3
:104280000020D9E7D34A12689179D24A526810784F
:104290006B460122FEF78BFB10B14FF0FF30CBE7EE
:1042A0009DF80000C010CB4908720020C4E71CB57F
:1042B00080208DF80000C74A1268917CC54A526878
:1042C00010786B460122FEF772FB10B14FF0FF3001
:1042D0001CBD642002F0B9FB00208DF80000BD4A2F
:1042E0001268917CBB4A526810786B460122FEF737
:1042F0005EFB10B14FF0FF30EAE7B64A1268917DDD
:10430000B44A526810786B460622FEF79BFA10B149
:104310004FF0FF30DCE79DF80500C007400F9DF827
:10432000031001F0010140EA41009DF8011001F085
:10433000010140EA010494B1012C03D10121A548F7
:10434000C17431E0022C03D10021A248C1742BE0DA
:104350002146A1A003F06EF94FF0FF30B8E79D4A67
:104360001268D1789B4A526810786B460122FEF79A
:1043700069FA10B14FF0FF30AAE79DF8000000F095
:104380000F042CB99E4803F055F94FF0FF309FE71A
:10439000042C06D19BA003F04DF901218D48C17476
:1043A00002E000218B48C174FF218A488172FF20FE
:1043B00088490872FF2187484172C1724FF6FF7128
:1043C000C181FF21017481740121017380F82210E1
:1043D000002180F82310417501751630016041609D
:1043E0008160163880F8241080F82510C1844FF4BD
:1043F000FA60FFF71AFF10B14FF0FF3068E70220B4
:10440000FFF7D1FE10B14FF0FF3061E72A20FFF730
:10441000D2FD10B14FF0FF305AE73220FFF777FEA0
:1044200010B14FF0FF3053E70020FFF78FFD10B1C0
:104430004FF0FF304CE70020FFF7F8FB10B14FF0D2
:10444000FF3045E70020FFF78CFB002040E7704776
:104450007CB504460D465F48807A00F0700010B9C4
:104460004FF0FF307CBD5B4A1268117B594A52689D
:1044700010786B460622FEF7E5F910B14FF0FF30D9
:10448000F0E79DF801009DF8001040EA012000B21D
:1044900020809DF803009DF8021040EA012000B240
:1044A00060809DF805009DF8041040EA012000B2EC
:1044B000A08015B12846FFF7CAFF0020D2E77CB5DF
:1044C00004460D464348807A00F0080010B94FF0CA
:1044D000FF307CBD3F4A1268517B3E4A52681078DB
:1044E0006B460622FEF7AEF910B14FF0FF30F0E751
:1044F0009DF801009DF8001040EA012000B22080E4
:104500009DF803009DF8021040EA012000B260808F
:104510009DF805009DF8041040EA012000B2A0803B
:1045200015B12846FFF793FF0020D2E72DE9FE4F93
:1045300005460C462748807A18B94FF0FF30BDE891
:10454000FE8F244A1268917B224A5268107802AB8F
:104550000222FEF777F910B14FF0FF30EFE79DF838
:1045600009009DF8081040EA012006B214B1204667
:10457000FFF76DFF17494968C88802F0DCFD15494F
:1045800001904968B1F9080002F0CCFD834630463D
:1045900002F0C8FD5946009002F0C6FB8246019920
:1045A00002F0FAFB81461F4902F06CFB80464FF097
:1045B0008F4102F0BFFB074602F0E0FD28600020BB
:1045C000BDE710B588B004461CB94FF0FF3008B005
:1045D00010BD29E084000020556E737570706F72F5
:1045E00074656420736F6674776172652070726F92
:1045F00064756374207265762025642E0A000000BD
:104600008897000848616C662073656E73697469E9
:1046100076697479207061727420666F756E642E8D
:104620000A00000000000C42206830B9606820B920
:10463000A06810B9002008B010BDFA494968087890
:1046400006AB03221146FEF7FDF810B14FF0FF3024
:10465000F1E79DF81800082101EB201000F00F0091
:10466000ADF800009DF8190001EB201000F00F00DC
:10467000ADF802009DF81A0001EB201000F00F00C9
:10468000ADF8040020684100BDF90000403091FB06
:10469000F0F000B2ADF8100060684100BDF9020012
:1046A000403091FBF0F000B2ADF81200A06841007C
:1046B000BDF90400403091FBF0F000B2ADF81400F9
:1046C000D8494968087806AB06221146FEF7BAF8C1
:1046D00010B14FF0FF30AEE79DF819009DF81810AB
:1046E00040EA012000B2ADF808009DF81B009DF8DB
:1046F0001A1040EA012000B2ADF80A009DF81D0032
:104700009DF81C1040EA012000B2ADF80C00BDF885
:104710001000BDF80810084400B2ADF81000BDF854
:104720001200BDF80A10084400B2ADF81200BDF83E
:104730001400BDF80C10084400B2ADF81400BDF828
:104740001000000A8DF81800BDF81000C0B28DF8F6
:104750001900BDF81200000A8DF81A00BDF8120009
:10476000C0B28DF81B00BDF81400000A8DF81C00C3
:10477000BDF81400C0B28DF81D00AA494968087838
:1047800006AB06221146FEF712F910B14FF0FF30CA
:1047900051E700204FE70146A248007A30B10128D6
:1047A00007D0022809D003280FD10AE0FA20088098
:1047B0000EE04FF4FA7008800AE04FF47A70088037
:1047C00006E04FF4FA60088002E00020088000BF95
:1047D00000BF0020704701469248407A30B101285E
:1047E00007D0022808D003280CD108E00220087066
:1047F0000BE00420087008E00820087005E0102095
:10480000087002E04FF0FF30704700BF8548C07C61
:1048100018B108784006000E08700020F4E7014641
:104820008048C07A082817D2DFE800F01704070A8A
:104830000D101318BC20088013E06220088010E0DF
:104840002A2008800DE0142008800AE00A20088051
:1048500007E00520088004E000BF00BF00200880BA
:1048600000BF00BF0020704701466E4890F824004A
:1048700010B14FF0FF3070476A48C08908800020AF
:10488000F9E7014600200880401E704701464FF0BE
:10489000FF30704701466348007A30B1012807D0E5
:1048A000022808D003280CD108E05F4808600BE01C
:1048B0005E48086008E05E48086005E05D48086002
:1048C00002E04FF0FF30704700BF0020FBE70146D9
:1048D0005448407A30B1012808D002280AD0032871
:1048E00010D10BE04FF4804008800EE041F69C7040
:1048F00008800AE04FF48050088006E04FF4006022
:10490000088002E04FF0FF30704700BF4548C07C90
:1049100010B10888401008800020F5E701464148A2
:10492000007C08700020704701463E48807A10B134
:104930000120087001E0002008700020704738B5A1
:1049400004463848807A10B94FF0FF3038BD354AF8
:104950001268117C334A526810786B460222FDF7C8
:1049600071FF10B14FF0FF30F0E79DF801009DF8A6
:10497000001040EA012000B220800020E6E72DE987
:10498000FE4F0746884692461D46DDF830B00026A9
:104990000024244890F8240010B1601EBDE8FE8F6A
:1049A000002028701F48807A10B94FF0FF30F5E7DB
:1049B0001C48007C10B94FF0FF30EFE71948007C2D
:1049C00000F0400008B1B01CC6B21648007C00F0F0
:1049D000200008B1B01CC6B21248007C00F01000E4
:1049E00008B1B01CC6B20F48007C00F0080008B146
:1049F000B01DC6B20B4A1268917A0A4A5268107802
:104A00006B460222FDF71EFF10B14FF0FF30C5E7E5
:104A10009DF801009DF8001040EA0129B1450BDA2C
:104A20000020BBE784000020000003430000834215
:104A30003333034233338341FC4840684088B9EB49
:104A4000600F17DDF94A1268517CF84A52681078F5
:104A50006B460122FDF7F6FE10B14FF0FF309DE7E7
:104A60009DF8000000F0100020B1FFF783F96FF00F
:104A7000010093E75046FFF7EAFCEC4A1268D17A4E
:104A8000EA4A526810786B463246FDF7DBFE10B1F9
:104A90004FF0FF3082E799FBF6F0401E8BF80000E4
:104AA00000202870B4422AD0E048007C00F00800C2
:104AB00028B3601C1DF800001DF8041040EA012016
:104AC00000B2A8F80000E01C1DF80010A01C1DF8A2
:104AD000000041EA002000B2A8F80200601D1DF8A5
:104AE0000010201D1DF8000041EA002000B2A8F8C7
:104AF0000400287840F008002870A01D84B2B44259
:104B000013D0CA48007C00F0400070B1601C1DF852
:104B100000001DF8041040EA012000B23880287817
:104B200040F040002870A01C84B2B44213D0BF48AB
:104B3000007C00F0200070B1601C1DF800001DF822
:104B4000041040EA012000B27880287840F020006C
:104B50002870A01C84B2B44213D0B448007C00F08A
:104B6000100070B1601C1DF800001DF8041040EA30
:104B7000012000B2B880287840F010002870A01CF6
:104B800084B200200AE7F8B504460F461646A74847
:104B900090F8240010B94FF0FF30F8BDA348807A98
:104BA00010B94FF0FF30F8E7A04A1268917A9F4A97
:104BB000526810786B460222FDF744FE10B14FF0A8
:104BC000FF30EAE79DF801009DF8001040EA01255A
:104BD000A54203DA00203070401EDEE793484068AB
:104BE0004088B5EB600F17DD904A1268517C8F4A00
:104BF000526810786B460122FDF724FE10B14FF089
:104C0000FF30CAE79DF8000000F0100020B1FFF768
:104C1000B1F86FF00100C0E7E2B2844B1B68D97AAB
:104C2000824B5B6818783B46FDF70CFE10B14FF0E5
:104C3000FF30B2E795FBF4F0401E30700020ACE787
:104C400001467A4880F82210002070477CB505465E
:104C500076494968087801AB04220D21FDF7F2FD81
:104C600008B107207CBD9DF80700C0F301109DF836
:104C7000041001F0E00140EAE1008DF800009DF829
:104C80000700C0F381009DF8051001F0E00140EA43
:104C9000E1008DF801009DF8070000F003009DF889
:104CA000061001F0E00140EAE1008DF80200002466
:104CB0001CE01DF8040018B9002045F8240013E09A
:104CC0005B4845F8240006E055F82400594902F0F5
:104CD00031F845F824001DF80400401EC0B20DF85C
:104CE00004000028F0D100BF601CC4B2032CE0DB3C
:104CF0000020B7E72DE9FE4F06460F46002568461F
:104D0000FFF7A4FF002442E056F8240057F82410CF
:104D1000A0EB010ABAF1000F01DB514601E0CAF134
:104D20000001084602F0FEF983464FF08F4102F081
:104D300033F880465DF82400002102F0CBFA16D04B
:104D40005DF82410404602F027F882464FF07E516D
:104D500001F0EAFF814629F0004A3748416A50468F
:104D600002F0C2FA12D20120A04005430EE0324800
:104D7000C169404602F0AEFA05D32F48016A4046A9
:104D800002F0B2FA02D20120A0400543641C032CB9
:104D9000BADB2846BDE8FE8F2DE9FC5F06460F46CC
:104DA000002522494968087801AB03220D21FDF74F
:104DB00049FD10B10720BDE8FC9F9DF8040000F0FC
:104DC0001F008DF804009DF8050000F01F008DF80D
:104DD00005009DF8060000F01F008DF80600002475
:104DE00062E056F8240057F82410A0EB010BBBF149
:104DF000000F01DB594601E0CBF10001084602F04B
:104E000091F94FF08F41009001F0C6FF814601A853
:104E1000005DC0B30849086802F08DF98346594621
:104E2000064801F0B9FF80460FE000008400002032
:104E30007B14AE3E1D5A843F588E000800B04C458E
:104E4000FE49404601F076FF804601A8005D401E05
:104E5000C0B201A908550028F2D14146484601F0E8
:104E60009BFF83464FF07E5101F05EFF82462AF0A1
:104E7000004BF3488169584602F036FA13D20120FC
:104E8000A04005430FE0FFE7ED480169484602F006
:104E900021FA05D3EA484169484602F025FA02D2D0
:104EA0000120A0400543641C032C9ADB284682E7BE
:104EB0002DE9F04F87B005460C46914601208DF84C
:104EC000100000208DF81100DE4A1268917CDD4A46
:104ED0005268107804AB0222FDF769FD20B14FF053
:104EE000FF3007B0BDE8F08FC82001F0AEFD002014
:104EF0008DF81000D34A1268D17BD24A52681078DC
:104F000004AB0122FDF753FD10B14FF0FF30E8E78D
:104F1000CC4A12685179CB4A5268107804AB01220E
:104F2000FDF745FD10B14FF0FF30DAE7C54A1268D2
:104F3000917CC44A5268107804AB0122FDF737FD1A
:104F400010B14FF0FF30CCE7BE4A1268D17DBD4AA8
:104F50005268107804AB0122FDF729FD10B14FF023
:104F6000FF30BEE7B74A12681179B64A5268107826
:104F700004AB0122FDF71BFD10B14FF0FF30B0E78D
:104F80000C208DF81000AF4A12681179AD4A5268B2
:104F9000107804AB0122FDF70AFD10B14FF0FF308D
:104FA0009FE70F2001F051FDA648806A407A8DF8F6
:104FB0001000A44A12689178A24A5268107804AB93
:104FC0000122FDF7F4FC10B14FF0FF3089E79D4856
:104FD000806A007A8DF810009A4A12685178994ACE
:104FE0005268107804AB0122FDF7E1FC10B14FF0DC
:104FF000FF3076E7B9F1000F07D09248806A807AD7
:1050000040F0E0008DF8100004E08E48806A807A5D
:105010008DF810008B4A126891798A4A526810788C
:1050200004AB0122FDF7C3FC10B14FF0FF3058E78D
:10503000B9F1000F07D08348806AC07A40F0E000E1
:105040008DF8100003E07E48C07A8DF810007D4A8C
:105050001268D1797B4A5268107804AB0122FDF7BF
:10506000A6FC10B14FF0FF303BE7B9F1000F02D0C2
:10507000C82001F0EAFC40208DF81000714A126847
:105080001179704A5268107804AB0122FDF78FFC49
:1050900010B14FF0FF3024E778208DF81000694AF6
:1050A00012685179674A5268107804AB0122FDF703
:1050B0007EFC10B14FF0FF3013E76149888901F0A1
:1050C000C4FC00208DF810005E4A126851795D4AD8
:1050D0005268107804AB0122FDF769FC10B14FF063
:1050E000FF30FEE6574A1268917A564A52681078A5
:1050F00004AB0222FDF7A6FB10B14FF0FF30F0E643
:105100009DF811009DF8101040EA012B0C209BFB2C
:10511000F0F0C6B20020A86068602860A0606060FF
:105120002060824665E0474A1268D17A454A526853
:10513000107804AB0C22FDF785FB10B14FF0FF3067
:10514000CFE69DF811009DF8101040EA012000B252
:10515000ADF808009DF813009DF8121040EA0120F8
:1051600000B2ADF80A009DF815009DF8141040EA51
:10517000012000B2ADF80C00BDF908102068084409
:105180002060BDF90A10606808446060BDF90C1029
:10519000A0680844A0609DF817009DF8161040EA2A
:1051A000012000B2ADF800009DF819009DF818101C
:1051B00040EA012000B2ADF802009DF81B009DF806
:1051C0001A1040EA012000B2ADF80400BDF9001049
:1051D000286808442860BDF90210686808446860BF
:1051E000BDF90410A8680844A8600AF1010000F0A5
:1051F000FF0AB24597DB1248D0F800C02868C117F3
:10520000090441EA1041070462460023384601F0D0
:10521000E9FC32460023CDE9020101F0E3FC2860FD
:105220000748D0F800C06868C117090441EA104176
:10523000070462460023384606E0000054E3853F39
:10524000588E00088400002001F0CCFC3246002378
:10525000CDE9020101F0C6FC6860FE48D0F800C04C
:10526000A868C117090441EA1041070462460023F7
:10527000384601F0B7FC32460023CDE9020101F0C7
:10528000B1FCA860F348D0F804C02168C817000436
:1052900040EA11480F04624600233846414601F0B7
:1052A000A1FC32460023CDE9020101F09BFC206005
:1052B000E848D0F804C06068C117090441EA104109
:1052C000070462460023384601F08CFC3246002376
:1052D000CDE9020101F086FC6060DE48D0F804C030
:1052E000A068C117090441EA10410704624600237F
:1052F000384601F077FC32460023CDE9020101F087
:1053000071FCA060A068002804DDA068A0F58030D2
:10531000A06003E0A06800F58030A0600020E0E518
:1053200038B50446CC4890F82400A04201D10020B2
:1053300038BD24B3C84890F8250010B94FF0FF30AD
:10534000F6E70020FEF74AFB0020FEF76FFCC2499B
:10535000C88CFEF7DCFE00200090BF494968087841
:105360006B4601222321FDF722FB0121BA4880F878
:1053700024100120FEF732FBFEF7FCFC13E00020B6
:10538000FEF72CFBB448007C0090B34949680878CC
:105390006B4601222321FDF70AFB0021AE4880F86D
:1053A0002410FEF7E7FC0020C2E72DE9F04F8DB096
:1053B00083460F4602200C90A74890F8240020B1A5
:1053C0000020FFF7ADFF012600E0002603A8FFF74D
:1053D000E2F905A8FFF7FFF901A8FFF720FA02A8F4
:1053E000FFF742FA9C4890F80AA004A8FFF796FA43
:1053F000002407E0002239465846FFF759FD00B95E
:1054000002E0641C022CF5DB00BF022C01D1002558
:1054100028E0002407E0012206A909A8FFF748FDBB
:1054200000B902E0641C022CF5DB00BF022C01D1A4
:10543000002517E006A93846FFF75CFC00F0FF08DE
:1054400009A95846FFF7A8FC00F0FF090025B9F1AB
:10545000000F01D145F00105B8F1000F01D145F071
:10546000020500BFFF207C490872FF217A48417283
:10547000C1724FF6FF71C181FF2181720174012158
:105480000173BDF80C00FEF7D0FE9DF81400FEF786
:105490008AFEBDF80400FEF78EFDBDF80800FEF799
:1054A00036FE5046FEF75DFB9DF81000FEF74EFD00
:1054B00016B10120FFF734FF28460DB0BDE8F08F8C
:1054C000F8B504460D46164616B94FF0FF30F8BD44
:1054D0006148807A10B94FF0FF30F8E720128DF85C
:1054E0000000E0B28DF801009DF8010028445A49FF
:1054F00049684989884202DD4FF0FF30E7E7564AA4
:105500001268117E544A526810786B460222FDF7E9
:105510004EFA10B14FF0FF30D9E7EAB24E4B1B689C
:10552000597D4D4B5B6818783346FDF740FA10B152
:105530004FF0FF30CBE70020C9E7F8B504460D4631
:10554000164616B94FF0FF30F8BD4348807A10B9BF
:105550004FF0FF30F8E720128DF80000E0B28DF830
:1055600001009DF8010028443B4949684989884267
:1055700002DD4FF0FF30E7E7374A1268117E364A06
:10558000526810786B460222FDF711FA10B14FF005
:10559000FF30D9E7EAB2304B1B68597D2E4B5B6870
:1055A00018783346FDF74EF910B14FF0FF30CBE7D6
:1055B0000020C9E72DE9F04385B005460E46904628
:1055C0009946254890F8250020B14FF0FF3005B0EE
:1055D000BDE8F08316B94FF0FF30F8E7002423E070
:1055E000281B102801DD102000E0281B87B232198B
:1055F00039462046FFF764FF10B14FF0FF30E6E771
:1056000001AA39462046FFF798FF10B14FF0FF304E
:10561000DDE730193A4601A901F027FB10B16FF020
:105620000100D4E7E01984B2AC42D9DB4FEA28206C
:105630008DF8000008F0FF008DF80100064A12689E
:10564000917E054A526810786B460222FDF7AFF949
:1056500038B103E0588E0008840000204FF0FF307E
:10566000B5E70121FE4880F82510A0F8269000201B
:10567000ADE70146FA4890F8240008700020704712
:105680004FF0FF30704702464FF0FF307047014641
:105690004FF0FF307047F8B505460F461446002C12
:1056A00070D0B5F5FF5F01DDFF2605E0202D01DAA2
:1056B000012601E0C5F3471607B90127282C02DDB2
:1056C0004FF0FF30F8BDE648407D28BBE44890F835
:1056D000240038B10020FFF723FE0121E04880F8C4
:1056E000201003E00021DE4880F82010DC4816304E
:1056F000FFF751F8DA481830FFF76DF8D8481A303C
:10570000FFF78DF8D6481C30FFF7AEF8D448817A01
:1057100081771F30FFF702F90020FEF75FF90020C4
:10572000FEF788FC00208DF80000CD4A12689178C1
:10573000CB4A526810786B460122FDF738F910B158
:105740004FF0FF30BEE740208DF80000C44A1268D9
:10575000D17BC34A526810786B460122FDF727F9C6
:1057600000B165E08DF800608DF80170BC4A1268E8
:10577000117ABB4A526810786B460222FDF717F97E
:1057800008B155E047E0052001F05FF9B448407AE0
:10579000072101EBC000C0B28DF80000B04A1268CA
:1057A000D179AF4A526810786B460122FDF7FFF8B5
:1057B00000B13DE020208DF80000012C03D1002035
:1057C0008DF801000EE0052C03DC01208DF80100AE
:1057D00008E0142C03DC02208DF8010002E0032015
:1057E0008DF801009DF80100072101EB8010C0B287
:1057F0008DF801009A4A1268917C994A5268107893
:105800006B460222FDF7D3F800B111E00121944864
:105810004175002056E7924A1632002103E0505CA1
:1058200000B105E0491C0C29F9D34FF0FF3049E7DE
:10583000FF208B490872FF2189484172C1724FF6DF
:10584000FF71C181FF218172017401210173014641
:10585000887FFEF786F98249C88AFEF7E6FC804910
:10586000087EFEF7A0FC7E49488BFEF7A4FB7C492E
:10587000888BFEF74CFC7A49C87FFEF767FB7848B7
:1058800090F8200010B10120FFF74AFD0021744874
:105890004175002016E770B588B002A905A8FFF78A
:1058A00084FD0446032C40D101A8FEF7F3FF0598C0
:1058B00001F038FC0646019901F03CFA054601F07A
:1058C0005DFC0590069801F02DFC0646019901F05B
:1058D00031FA054601F052FC0690079801F022FCCF
:1058E0000646019901F026FA054601F047FC0790AB
:1058F00005A8FDF756FA6846FEF7E9FF002000907C
:10590000BDF80010029848430290BDF800100398BB
:1059100048430390BDF8001004984843049002A83F
:10592000FDF7D2FA002008B070BD0120FBE7014668
:1059300091F90020002A01DD00201EE091F90020ED
:10594000002A01DA042018E091F90120002A01DD83
:10595000012012E091F90120002A01DA05200CE073
:1059600091F90220002A01DD022006E091F90220CF
:10597000002A01DA062000E00720704710B504462F
:105980002046FFF7D4FF0346E01CFFF7D0FF43EAB1
:10599000C00083B2A01DFFF7CAFF43EA801083B2A4
:1059A000184610BD70B50024FDF73FF8FEF77FFCE8
:1059B000002840D17820FEF7D4F8C4B20CB1012001
:1059C00070BD7820FEF7C2FAC4B20CB10220F7E72E
:1059D0006420FEF79CFBC4B20CB10320F0E7FDF796
:1059E00045F9C4B20CB10420EAE71E48FFF7C6FF30
:1059F0000546FDF745F9C4B20CB10520E0E740F2D9
:105A00007310FDF77EFDC4B20CB10620D8E7642008
:105A1000FDF7F0FAC4B20CB10720D1E7FFF73BFF66
:105A200004460CB10820CBE70120FFF779FCC4B293
:105A30001CB10920C4E70A20C2E70020C0E72DE915
:105A4000F04F99B004460D4616464FF07E574FF082
:105A500000084FF000094FF0000A12A813A903E054
:105A600084000020B000002018AB0EAACDE9001081
:105A700014A916A8FDF7A4FE18B1012019B0BDE8BD
:105A8000F08FBDF84C0000F4807000287ED00E9896
:105A900001F048FB83464FF09D4101F07DF9074638
:105AA0000F9801F03FFB83464FF09D4101F074F9E0
:105AB0008046109801F036FB83464FF09D4101F07F
:105AC0006BF98146119801F02DFB83464FF09D4103
:105AD00001F062F9824639464FF0804001F02AF920
