:020000040800F2
:10000000E80B002095010008990100089B010008F9
:100010009D0100089F010008A101000800000000E8
:10002000000000000000000000000000A301000824
:10003000A501000800000000A7010008A9010008B0
:10004000AB010008AB010008AB010008AB010008E0
:10005000AB010008AB010008AB010008AB010008D0
:10006000AB010008AB010008AB010008AB010008C0
:10007000AB010008AB010008AB010008AB010008B0
:10008000AB010008AB010008AB010008AB010008A0
:10009000AB010008AB010008AB010008AB01000890
:1000A000AB010008AB010008AB010008AB01000880
:1000B000C1110008E3210008D9110008AB010008B4
:1000C000AB010008AB010008AB010008AB01000860
:1000D000AB01000889160008DD1C0008471F000856
:1000E000AB010008AB010008AB01000800F002F80A
:1000F00000F03AF80AA090E8000C82448344AAF188
:100100000107DA4501D100F02FF8AFF2090EBAE885
:100110000F0013F0010F18BFFB1A43F0010318473B
:10012000384F0000584F0000103A24BF78C878C1FB
:10013000FAD8520724BF30C830C144BF04680C60ED
:10014000704700000023002400250026103A28BF35
:1001500078C1FBD8520728BF30C148BF0B60704739
:100160001FB51FBD10B510BD02F028FA1146FFF7EC
:10017000F7FF01F038FF02F046FA03B4FFF7F2FF91
:1001800003BC01F0F3F9000030BF72B662B680F331
:100190000888704708480047FEE7FEE7FEE7FEE7ED
:1001A000FEE7FEE7FEE7FEE7FEE7FEE70348044959
:1001B000044A054B70470000ED000008E8050020E8
:1001C000E80B0020E8070020E80700207A48806953
:1001D00040F00400784988610846806940F00800D2
:1001E00088617648006820F47F407449086074484C
:1001F000006820F0FF00724908606F48806940F491
:1002000000706D4988610846C06840F40070C8609D
:100210000846C06820F40070C8600846406820F4B2
:10022000404048600846406840F4004048606548E7
:10023000006865490840634908600846006808602E
:100240000846006820F480700860081D006820F0EF
:100250000200091D08600846006820F4602008605C
:100260000846006840F4602008600846006840F4D2
:10027000801008600846006820F40060086051485B
:100280002830006820F470004E4928310860084684
:100290000068002008604B480C3000680020494985
:1002A0000C3108600846006840F4E07008600846B9
:1002B000006840F4606008600846006840F0E06054
:1002C00008600846006840F0605008603D48001D26
:1002D000006840F001003B49091D086008460068BD
:1002E00040F00800086000BF3648001D006800F0BC
:1002F00008000028F8D13348001D006840F00400D1
:100300003049091D086000BF2E48001D006800F03C
:1003100004000028F8D1704701462A4830300068B0
:1003200020F01F00274A3032106010460068084352
:1003300010602448001D006840F48000214A121D0E
:10034000106000BF1F48001F006800F00200002876
:10035000F8D01C484830006880B270472DE9F04F53
:1003600087B00220FFF7D8FF019003F0ABF9804679
:100370004FF06632154B03F0F5F90022144BCDE92E
:10038000020103F0EFF90022124BCDE9040103F062
:10039000E9F906460022104B02F0C8FF044600228D
:1003A0000E4B02F0C3FF824603F018F90690069840
:1003B00007B0BDE8F08F00000010024000080140C7
:1003C000000C014004240140FFFFF00066660A4073
:1003D00000002640000059400000F03F0000B040FF
:1003E0005C48806940F004005A4988615A480068B6
:1003F00020F47000584908600846006840F4000086
:10040000086055480C30006840F0200052490C311B
:1004100008605048806940F008004E4988614F48A4
:10042000006820F47F004D4908600846006840F4E9
:10043000080008607047024629B949480088401CF6
:10044000474B188002E00020454B188029B94548E9
:10045000007810B90120434B187043480078B0B9B8
:1004600040480078012807D140480078401C3F4BA5
:10047000187001203C4B18703C480078022806D1C7
:1004800000203A4B18703A4B18800220704701291F
:1004900004D10020334B1870334B18703348007868
:1004A00001281CD132480088401C314B1880184666
:1004B000008890420ADD2A480088904206DA00202F
:1004C0002A4B18702A4B18800120DFE72448008847
:1004D000904204DD0020254B1870254B1880002029
:1004E000D4E70246012905D12248008810B901202D
:1004F000204B188041B91F480088022804D11E48AB
:100500000088401C1C4B1880012908D1194800881C
:10051000012804D119480088401C184B188017483E
:100520000088904202DD0220124B18801248008899
:1005300090420CDD0F480088022808D100200E4BA5
:1005400018800E4B18800B4B18800120704700203C
:10055000FCE700000010024000080140000C0140D0
:100560000600002000000020010000200200002002
:10057000040000200C000020080000200A000020D9
:100580002048806940F004001E4988611E480068C8
:1005900020F470201C4908600846006840F4403090
:1005A000086019480C30006840F0100016490C3102
:1005B000086070471549096809B915490860144968
:1005C000096819B90121134A116019E01049096835
:1005D000012903D100210F4A116011E00B4909687C
:1005E000491C0A4A11600A4A1268914208D1094915
:1005F0000968C943084AC2F890110021034A1160F2
:100600007047000000100240000801401400002064
:100610001000002090012142000021423C488069E6
:1006200040F008003A4988613A48006820F07F406D
:10063000384908600846006840F0085008603548AE
:1006400008300068334908310860084600680860CF
:10065000704700B502460B46FFF7E0FF2C48806963
:1006600040F400602A4988610846806940F004002F
:100670008861294800684FF20F01884326490860C5
:10068000084600684BF20B010843234908602348E1
:100690000280001F038021481438008840F0600069
:1006A0001E4914390880081D008840F4C040091D07
:1006B0000880081F008840F00800091F0880081DF6
:1006C000008840F40060091D0880081D008840F083
:1006D0000100091D08800846008840F48050088009
:1006E00000200E49083108800C4914310880081D8B
:1006F000008840F40040091D0880802007492C39FB
:1007000008800846008840F00100088000BD70475E
:1007100000100240040C0140040801402C2C014050
:1007200010B50A461AB10123FE4C236002E00023F3
:10073000FC4C2360002114E00023FB4C236000F0FC
:1007400080031BB10123241F236003E00023F64C28
:10075000241F23600123F44C23604306180E4B1C16
:10076000D9B20829E8DB0123EE4C236010BD30B577
:1007700000241CE004F1B001C8B20021FFF7D0FF53
:1007800000210846FFF7CCFF00211020FFF7C8FF2B
:10079000002508E0E54901EBC501085D0121FFF7EF
:1007A000BFFF681CC5B2802DF4DB601CC4B2082CEE
:1007B000E0DB30BDF0B5144600267F2801DC3F2980
:1007C00000DDF0BD0B46CF1701EB5777FF10C7F1E7
:1007D0000707FAB2CF1701EB5777FF10A1EBC70756
:1007E000FDB2C5F107070123BB40DEB24CB1CF4BD0
:1007F00003EBC0039B5C3343CC4F07EBC007BB54F8
:1008000008E0CA4B03EBC0039B5CB343C74F07EB45
:10081000C007BB5400BFD4E72DE9F04F80460C461B
:1008200015461E46A346A5F12000C5B200273EE0AE
:100830000C2E07D105EB4500BD4901EB800010F8F7
:10084000079004E0BB4800EB051010F807904FF04C
:10085000000A26E009F0800028B121464046099AA6
:10086000FFF7A8FF09E0099808B9012000E000207F
:10087000024621464046FFF79DFF4FEA49604FEA96
:100880001069601CC4B2A4EB0B00B04205D15C46F9
:1008900008F1010000F0FF0806E00AF1010000F095
:1008A000FF0ABAF1080FD5DB00BF781CC7B2B74208
:1008B000BEDBBDE8F08F10B50246012000E05043DA
:1008C0000B1EA1F10104E1B2F9D110BD2DE9FF4FDA
:1008D00081B0074691461E460E9D4FF0000A002447
:1008E00039E0301B401EC1B20A20FFF7E4FFB9FB1C
:1008F000F0F00A21B0FBF1F201FB1208BAF1000F8F
:1009000016D1701EA04213DDB8F1000F0ED10120E8
:10091000AB4605EBDB71491001FB04710090C8B2D6
:100920002B4620220299FFF777FF12E04FF0010AD1
:100930000120AB4605EBDB71491001FB047100900F
:10094000C8B208F13001CAB22B460299FFF764FF22
:1009500000BF601CC4B2B442C3DB05B0BDE8F08F79
:1009600030B500240CE0002506E000206F4901EBC3
:10097000C5010855681CC5B2802DF6DB601CC4B2E9
:10098000082CF0DBFFF7F3FE30BD78B505460E46C8
:10099000144618E07A2D03DD002506F11000C6B2DA
:1009A0003A2E04DD002005460646FFF7D9FF012058
:1009B000009022780C2331462846FFF72DFF05F1E1
:1009C0000800C5B2641C20780028E3D178BD38B592
:1009D0005948007859490978884205D0FFF7C0FF87
:1009E00056480078544908705548006800280FDAC6
:1009F00054A200210846FFF7C8FF0C2005230090F1
:100A00004F480068424200210F20FFF75FFF0DE0D2
:100A10004DA200210846FFF7B8FF0C2005230090E7
:100A20004748002102680F20FFF750FF4748006841
:100A300000280FDA43A200215020FFF7A6FF0C2068
:100A40000523009041480068424200215F20FFF7E3
:100A50003DFF0DE03CA200215020FFF796FF0C2047
:100A6000052300903948002102685F20FFF72EFF20
:100A70003748006800280FDA32A20A210020FFF769
:100A800084FF0C20052300903148006842420A216F
:100A90000F20FFF71BFF0DE02BA20A210020FFF71C
:100AA00074FF0C200523009029480A2102680F20BA
:100AB000FFF70CFF21480078012822D12548006863
:100AC00000280FDA1FA20A215020FFF75EFF0C203A
:100AD000052300901F48006842420A215F20FFF76B
:100AE000F5FE4EE018A20A215020FFF74EFF0C2021
:100AF0000523009017480A2102685F20FFF7E6FEF1
:100B00003FE01548006800282CDA0EA20A21502088
:100B1000FFF73BFF0C20052300900F48006842427E
:100B20000A211BE0BC012142BC012242B40000208A
:100B30005E450008D2490008180000204800002047
:100B4000600000202D0000002B0000005800002055
:100B50007800002080000020840000205F20FFF744
:100B6000B5FE0EE0AFF220020A215020FFF70DFF84
:100B70000C2005230090FE480A2102685F20FFF741
:100B8000A5FEFC48007801287CD10021FA480068C5
:100B900003F0BCFA16D2AFF2540214210020FFF782
:100BA000F4FEF548006880F00045284603F062FA3C
:100BB00004460C2005232246142100900F20FFF745
:100BC00085FE12E0AFF2800214210020FFF7DDFE67
:100BD000E948006803F04EFA04460C20052322463B
:100BE000142100900F20FFF771FE0021E3480068F8
:100BF00003F08CFA16D2AFF2B40214215020FFF7A2
:100C0000C4FEDE48006880F00045284603F032FA52
:100C100004460C2005232246142100905F20FFF794
:100C200055FE12E0AFF2E00214215020FFF7ADFEB6
:100C3000D248006803F01EFA04460C200523224621
:100C4000142100905F20FFF741FE0021CC4800688E
:100C500003F05CFA17D2AFF214121E210020FFF746
:100C600094FEC748006880F00045284603F002FA69
:100C700004460C20052322461E2100900F20FFF77A
:100C800025FE74E013E0AFF240121E210020FFF7B2
:100C90007CFEBB48006803F0EDF904460C200523F8
:100CA00022461E2100900F20FFF710FE5FE000217A
:100CB000B448006803F02AFA16D2AFF27812142171
:100CC0000020FFF762FEAF48006880F0004528462C
:100CD00003F0D0F904460C2005232246142100908D
:100CE0000F20FFF7F3FD12E0AFF2A4121421002051
:100CF000FFF74BFEA348006803F0BCF904460C2044
:100D000005232246142100900F20FFF7DFFD00216C
:100D10009D48006803F0FAF916D2AFF2D8121421F8
:100D20005020FFF732FE9848006880F000452846C2
:100D300003F0A0F904460C2005232246142100905C
:100D40005F20FFF7C3FD12E0AFF204221421502010
:100D5000FFF71BFE8C48006803F08CF904460C205A
:100D600005232246142100905F20FFF7AFFD87A2E4
:100D700032210D20FFF709FE85A232212320FFF743
:100D800004FE84480068642190FBF1F40C200223E7
:100D90002246322100900020FFF798FD7D48006830
:100DA000642190FBF1F201FB12040C200223224685
:100DB000322100901720FFF789FD764800686421F2
:100DC00090FBF1F201FB12000A2807DA0C20022343
:100DD0000022322100901120FFF778FD0C20012322
:100DE00000906D48027832217820FFF76FFD0C20CB
:100DF000012300905F48027832216E20FFF766FDE4
:100E00000C20009065480268012332216420FFF71E
:100E10005DFDFFF7ACFC38BD00B500218D20FFF76C
:100E20007FFC00211420FFF77BFC0021AF20FFF79F
:100E300077FC00BD00B500218D20FFF771FC00217B
:100E40001020FFF76DFC0021AE20FFF769FC00BD0C
:100E500010B55348806940F00400514988615148F9
:100E6000006820F070404F4908600846006840F074
:100E7000005008604A48806940F010004849886185
:100E80000846806940F00100886147484068C0F327
:100E900013004549486008464068444908434249B0
:100EA00048604348006840F48070414908603C480D
:100EB000006A20F001003A4908623E48008820F0AC
:100EC00001003C4908803A48006820F480703849A5
:100ED0000860002038490860642000F0C9F901204A
:100EE0003649C1F8B4010021AE20FFF719FC0021FA
:100EF000D520FFF715FC00215020FFF711FC002141
:100F0000A820FFF70DFC00213F20FFF709FC00217E
:100F1000D320FFF705FC00210846FFF701FC002164
:100F20004020FFF7FDFB00218D20FFF7F9FB00219A
:100F30001420FFF7F5FB00212020FFF7F1FB002133
:100F40000220FFF7EDFB0021A120FFF7E9FB0021C4
:100F5000C020FFF7E5FB0021DA20FFF7E1FB0021CD
:100F60001220FFF7DDFB00218120FFF7D9FB27E0EE
:100F700084000020480000206C0000207000002049
:100F80007400002064000020680000202E00000093
:100F9000560000004C000020470000201481214230
:100FA000001002400408014000100140000020220F
:100FB00000700040306C0040B40122420000224228
:100FC0000021EF20FFF7ACFB0021D920FFF7A8FBA1
:100FD0000021F120FFF7A4FB0021DB20FFF7A0FB9D
:100FE00000213020FFF79CFB0021A420FFF798FB95
:100FF0000021A620FFF794FB0021AF20FFF790FB14
:10100000FFF7AEFC10BD000010B57948C06940F094
:1010100001007749C8610846806940F00400886192
:101020007448006820F0FF007249086008460068B4
:1010300040F044000860C804808940F00100C90401
:1010400088810846808940F04000888101231C2265
:101050000321184600F044F900204FF08041088534
:101060004FF6FF7088850846008820F4407008809D
:101070000846008820F0600008800846008B40F099
:10108000010008830846008B40F4807008830846FE
:10109000008C20F0020008840846008C20F020001C
:1010A00008840846008940F003000881084600884B
:1010B00040F00100088010BD10B54D48C06940F0F7
:1010C00004004B49C8610846806940F00800886107
:1010D0004948006820F07F4047490860084600689A
:1010E00040F0884008604548008840F001004349CE
:1010F00008800846008840F04000088001231E2236
:101100000321184600F0ECF800203C491C3108800F
:101110004FF6FF70091D088038480C38008820F40D
:10112000407036490C3908800846008820F060007D
:10113000088032480C30008840F001002F490C3103
:1011400008800846008840F4807008802B481430DE
:10115000008820F0020029491431088008460088E0
:1011600020F0200008802548001F008840F0030080
:101170002249091F088021480C38008840F00100EE
:101180001E490C39088010BD0146022902D00429ED
:1011900012D108E04FF08042928C10B200224FF042
:1011A00080439A840AE0154A1832128810B200224D
:1011B000124B18331A8001E0002000BF00BF7047B7
:1011C0004FF08040008A4FF08040008A20F00100FC
:1011D0004FF08041088270470848001D008807488A
:1011E000001D008820F001000449091D0880704797
:1011F0000010024000080140000C01400C080040B3
:101200004FF0E021096921F004014FF0E022116163
:10121000C21700EB5272C2F3C702234B1A70194671
:10122000097801EB4102C2EBC1114FF6FF7202EAED
:10123000C1011E4A1180704701461B4A12784A4379
:101240004FF0E0235A6100229A6101221A6100BF27
:101250004FF0E022106900F001021AB100F4803270
:10126000002AF5D000224FF0E0231A619A617047FE
:1012700001460E4A12884A434FF0E0235A61002289
:101280009A6101221A6100BF4FF0E022106900F05C
:1012900001021AB100F48032002AF5D000224FF08A
:1012A000E0231A619A6170471A0000201C00002098
:1012B000A34A0A400243A34B1A6070470146072322
:1012C00023EA010212029F4B1B1D18684FF6FF0311
:1012D00018409D4B184310439A4B1B1D18607047D4
:1012E0002DE9F0410746884614461D462846FFF77B
:1012F000E5FFC5F1040007FA00F60F20284100EAD7
:101300000800064306F00F06E21704EBD262521102
:10131000920002F1E022D2F800212146E31704EB0B
:10132000D3635B11A4EB431C012303FA0CF31A43B0
:101330002046E31704EBD3635B119B0003F1E0232A
:10134000C3F800218148005D40EA06107F49085536
:10135000BDE8F08170B504460B46CE1701EB9676DA
:10136000C6F38700CE1701EB9676B610A1EB860682
:10137000B606350E764B9B6943F00103744EB3619C
:101380004FEAB63353F820300F26AE40B343714EC8
:1013900046F82030334653F8203004FA05F61E4351
:1013A0006C4B43F820606C4B1B6801268E40334326
:1013B000694E336002F0010343B1674B0C331B6885
:1013C00001268E403343644E0C36336002F0020334
:1013D00043B1614B08331E6801238B401E435E4BB3
:1013E00008331E6070BD00B5002059490861C8600F
:1013F0001420486100208861C8610846006840F0F8
:101400000100086008464068544908405049486057
:1014100008460068524908404D490860084600687F
:1014200020F4802008600846406820F4FE004860F0
:101430000020886000214FF00060FFF739FF00BDF9
:1014400010B540480830006840F004003D490831BC
:1014500008603F48C06940F080503D49C86141483C
:10146000406840F480703F4948600846006840F09A
:10147000040008600846006840F002000860FEF7BB
:1014800083FE10BD3048001D2E49091D08607047BD
:10149000014649062E4A926942F001022C4B9A619C
:1014A0002C4A083A526822F0E0622A4B083B5A6004
:1014B0001A4652680A435A60704730B50446002500
:1014C000FFF791FF2248006840F48030204908600F
:1014D00000BF1F480068400C0028FAD04FF480601D
:1014E0001B494860A01EC4B20846406840EA8440D8
:1014F00048600846406840F4803048601A480068F8
:1015000040F03200184908601148006840F08070CF
:101510000F49086000BF0E480068400E0028FAD04E
:101520000B48406840F002000949486005E008485F
:101530004068C0F3870505F00305022DF7D130BDE3
:1015400080FFFF1F08ED00E00000FA0500E400E066
:101550000010024008000140000401400000FFF8B4
:10156000FFFFF6FE0070004000200240014600BF71
:101570000020704700BFFE4A128802F04002002A95
:10158000F9D0C2B2FA4B1B1D1A807047F949088086
:1015900000BFF849091F098801F040010029F8D06F
:1015A00070472DE9F05F05460E46300102F09AFDC6
:1015B0008146F14905FB01F002F094FD824649465F
:1015C00002F07AFC0746384602F054FD84B2204609
:1015D00002F088FD8346394602F0C9FE82464FF08C
:1015E000834102F0C7FD814602F044FD80464FF67C
:1015F000FF7000EA041404EB080084B2DF4880693D
:1016000040F00400DD4988610846806940F480406C
:101610008861DB48006820F47F60D949086008468B
:10162000006840F40B600860D5480830006840F45A
:101630000070D34908310860D048C06840F4804049
:10164000CE49C8600846C06820F48040C860C948D8
:10165000001D0480001D008842F20C010843C549AA
:10166000083108800846008840F4807008800846E9
:10167000008840F0200008800223252219461846E1
:10168000FFF72EFEBDE8F09FBA48001F008800F06B
:10169000200000287DD0B7480088BA49BA4A12789D
:1016A00088540020B9490860B7480078352876D2B8
:1016B000DFE800F01B252F393A3B3C3D3E3F4041DF
:1016C00042434445464748494A4B4C4D4E4F505182
:1016D00052535455565758595A5B5C5D5E5F606172
:1016E00062636465666768697100A6480078AA2825
:1016F00004D1A5480078401CA349087050E0A148D7
:101700004078AA2804D1A0480078401C9E4908705F
:1017100046E09C488078F12804D19B480078401C22
:10172000994908703CE000BF00BF00BF00BF00BF88
:1017300000BF00BF00BF00BF00BF00BF00BF00BFB1
:1017400000BF00BF00BF00BF00BF00BF00BF00BFA1
:1017500000BF00BF00BF00BF00BF00BF00BF00BF91
:1017600000BF00BF00BF00BF00BF00BF00BF00BF81
:1017700000BF00BF00BF00BF00BF00BF00BF00BF71
:1017800000BF00BF00BF80480078401C7E49087041
:1017900006E006E003E001207D49087000E000BF9C
:1017A00000BF0020704770B50346302A00DD70BDD1
:1017B0000025784E141D3555AA2435462C706C70C2
:1017C0002C46A370E270002005E00D5C041D714EF4
:1017D0003555441CE0B29042F7DB00200AE06D4D25
:1017E000141D2C5D2D5C2C44E5B26A4E141D35553C
:1017F000441CE0B2141DA042F1DB00BFD7E71FB5C7
:101800008DB00DACE0788DF80000A0788DF8010067
:1018100060788DF8020020788DF803000EACE07837
:101820008DF80400A0788DF8050060788DF806002A
:1018300020788DF807000FACE0788DF80800A078CC
:101840008DF8090060788DF80A0020788DF80B007B
:1018500010ACE0788DF80C00A0788DF80D00607861
:101860008DF80E0020788DF80F0013ACE0788DF81D
:101870001000A0788DF8110060788DF812002078A3
:101880008DF8130014ACE0788DF81400A0788DF872
:10189000150060788DF8160020788DF8170015ACCB
:1018A000E0788DF81800A0788DF8190060788DF830
:1018B0001A0020788DF81B0016ACE0788DF81C001B
:1018C000A0788DF81D0060788DF81E0020788DF8C6
:1018D0001F0017ACE0788DF82000A0788DF821006B
:1018E00060788DF8220020788DF8230018ACE0781D
:1018F0008DF82400A0788DF8250060788DF82600FA
:1019000020788DF8270019ACE0788DF82800A078B1
:101910008DF8290060788DF82A0020788DF82B004A
:101920001AACE0788DF82C00A0788DF82D00607846
:101930008DF82E0020788DF82F0030226946F12096
:10194000FFF731FF11B010BD2DE9FF4F8DB00D46EF
:10195000164699464FF07E500C900D9801F0B2FE5D
:10196000074600220C4B01F0FBFF1AD80B4817E08A
:10197000004800400438014040420F00001002407F
:1019800004080140B40400202500002028000020A5
:1019900026000020EB04002000006040000080BF13
:1019A0000C904FF0000A0D9801F08CFE07460022C3
:1019B000FE4B01F0D5FF0DD80D9801F083FE0022FB
:1019C000FA4BCDE90A0102F0F3F8074601F0C0FB3B
:1019D000824603E00D9802F085FB8246504602F0F5
:1019E000D1F900224FF08043CDE90A0101F0BAFE9F
:1019F000074601F0ADFB8246284601F063FE07462C
:101A00000022EA4B01F0ACFF0CD8504602F0BAF9C4
:101A10000022E74BCDE90A0101F0CCFB074601F0BB
:101A200097FB8246504602F0ADF90022E14BCDE92A
:101A30000A0102F0BDF8074601F08AFB8246002445
:101A4000284601F03FFE07460022D84B01F088FFF0
:101A50000CD8284601F036FE07460022D34B02F090
:101A6000A7F8CDE90A0101F0E9FDC5B2284601F069
:101A700029FE07460022D04B01F074FECDE9020199
:101A8000304601F01FFECDE90001DDE9022301F03F
:101A900091FB0022C84BCDE9040101F063FECDE9C2
:101AA0000801484601F00EFECDE90601DDE90823F4
:101AB00001F080FBCDE90A0101F04AFB04464FF03A
:101AC0009641204602F0F8F9044621464FF07E5038
:101AD00002F084F9074602F055F9CDE908015046B5
:101AE00002F050F907463A460B4600204FF080417D
:101AF00000F01CFECDE904010C9802F043F9CDE999
:101B00000201DDE9042301F02DFECDE90601DDE946
:101B1000082301F027FECDE90A0101F019FB8346F5
:101B2000584611B0BDE8F08FA449088000BFA34912
:101B3000091F098801F040010029F8D070472DE9FC
:101B4000F05F05460E46300102F0CCFA81469C4912
:101B500005FB01F002F0C6FA8246494602F0ACF9F4
:101B60000746384602F086FA84B2204602F0BAFAF6
:101B70008346394602F0FBFB82464FF0834102F078
:101B8000F9FA814602F076FA80464FF6FF7000EAD5
:101B9000041404EB080084B28A48806940F0040011
:101BA000884988610846C06940F40030C8618648A9
:101BB000006820F47F40844908600846006840F4CB
:101BC0000B4008607F48006940F400307D4908619F
:101BD0000846006920F4003008617848001D048040
:101BE000001D008842F20C01084374490831088046
:101BF0000846008840F4807008800846008840F05D
:101C0000200008800223262201210020FFF768FB24
:101C1000BDE8F09F2DE9F041054615B93020FFF7EA
:101C200083FF002D23DD2F4603E00A2097FBF0F70A
:101C3000761C002FF9D100240BE00A2095FBF0F16F
:101C400000FB1150614941F824000A2095FBF0F592
:101C5000641CB442F1DB741E07E05C4911F82410E7
:101C60003031C8B2FFF760FF641E002CF5DA002D9A
:101C700028DAC5F100086F4203E00A2097FBF0F76D
:101C8000761C002FF9D12D20FFF74EFF00240BE02A
:101C90000A2098FBF0F100FB11804C4941F8240028
:101CA0000A2098FBF0F8641CB442F1DB741E07E0D4
:101CB000464911F824103031C8B2FFF735FF641ED1
:101CC000002CF5DA0A20FFF72FFF0D20FFF72CFF7D
:101CD00028213E4800F033FCBDE8F0813748001F62
:101CE000008800F0200000287CD034480088384963
:101CF0000860324800883749374A127841F8220094
:101D00003548007806286ED2DFE800F0030D343A3B
:101D1000408F30480068792804D12F480078401C53
:101D20002D49087095E02B484068622808D12A4860
:101D30000078401C2849087000202849087018E0E5
:101D400024484068762808D123480078401C22495E
:101D500008700120214908700BE01E484068642883
:101D600007D11D480078401C1B49087002201B4900
:101D700008706EE018480078401C1749087068E049
:101D800015480078401C1449087062E01348007838
:101D900050BB1048C0680A282AD10E4800690D2897
:101DA00026D10C4880680E4908601EE000006040A3
:101DB0000000F03F00C05F4000007040044400405D
:101DC00040420F0000100240000801406005002062
:101DD0002C000020240500204000002030000020BE
:101DE0003400002036E033E002E000205E49087055
:101DF0005E48007801280ED15D48C0680A280AD1E3
:101E00005B4800690D2806D1594880685949086027
:101E100000205549087055480078022804D15248DE
:101E20000078401C5049087013E0514800690A28A6
:101E30000DD14F4840690D2809D14D4880684C4963
:101E4000C96808444C49086000204749087000E010
:101E500000BF00BF002070472DE9F05F05460E4629
:101E6000300102F03FF98146444905FB01F002F0E0
:101E700039F98246494602F01FF80746384602F013
:101E8000F9F884B2204602F02DF98346394602F073
:101E90006EFA82464FF0834102F06CF9814602F0FF
:101EA000E9F880464FF6FF7000EA041404EB0800DE
:101EB00084B23348806940F00100314988610846A6
:101EC000806940F0080088610846C06940F48020BD
:101ED000C8612C48006820F47F402A490860084601
:101EE000006840F40B40086026480830006840F461
:101EF00080602449083108602148006940F480204E
:101F00001F4908610846006920F4802008611E48C6
:101F10000480001D008842F20C0108431A49091D83
:101F200008800846008840F48070088008460088D1
:101F300040F0200008800223272201210020FFF723
:101F4000CFF9BDE8F09F10480838008800F0200065
:101F500038B10D48001F00880C490D4A127841F82D
:101F600022000020704700004000002030000020C8
:101F700024050020380000203C00002040420F00D3
:101F800000100240040C0140084800404C050020AD
:101F90004100002070B505460C46FD48C06940F080
:101FA0000200FB49C861FB480580001F0480F94816
:101FB0002038008840F00100F649203908800846A2
:101FC000008840F040000880F2482C38008840F03B
:101FD0000100F0492C39088002231D220121084606
:101FE000FFF77EF970BD0920FFF767FA4820FFF779
:101FF00007F90220FFF74CFA0120FFF749FAFEF734
:10200000BFFAFEF7EDF94FF4E1314820FFF7C9FAC6
:102010004FF4E1312420FFF71FFF1420FFF728F9C8
:10202000FEF7F2FFFFF748F8002141F61F40FEF7E8
:1020300010FB0A20FFF71CF9FEF70AFFFEF7C6F8AF
:1020400041F61F416320FFF7A5FF3220FFF710F98B
:1020500014E0D148007808B9012000E00020CE4902
:1020600008700846007808B9FEF7B1FC0120CB499A
:10207000087000BFC94800780028FBD1E9E710B517
:10208000C7480068C1B24620FEF7D5F9C5490870B7
:1020900008460078012808D1C348007828B90120F3
:1020A000C14908700020BF490870BE480078012867
:1020B00008D1BD480078012804D10020BA49087031
:1020C000B8490870B9480068C1B20920FEF709FA9A
:1020D000B749087008460078012808D1B54800784B
:1020E00028B90120B34908700020B1490870B048F0
:1020F0000078012808D1AF480078012804D10020D9
:10210000AC490870AA49087010BD00280BDA0021FC
:10211000A64AA43211600121A74AC2F8BC1141426B
:10212000A64A118009E00121A04AA43211600021D1
:10213000A14AC2F8BC11A14A108070472DE9F047AE
:1021400004460D462946204602F011F99C490860D4
:102150009C4801689A48006802F00CF881469A4948
:1021600001F0AAFE0746994801689548006802F008
:1021700009F9824696480168504601F0FBFF814606
:10218000914901F099FE8046394601F027FE064646
:1021900090480168304601F021FE8E4908608E4962
:1021A0008C48006802F0B2F803D28B488949086075
:1021B00008E08A498748006801F0A8FF02D28748F2
:1021C000844908607E480068804908607648007845
:1021D00018B9002008607F4908607E480068BDE8A3
:1021E000F08770B56B481C38008800F001000028AB
:1021F0007ED068481C38008820F0010065491C39F1
:1022000008800220FEF7C0FF754908600420FEF731
:10221000BBFF744908607448006871490968084444
:10222000714908606E48006801F044FF05466F4937
:10223000FFF784FF044601F001FF6D49086008467E
:10224000006841F6BC31884203DD084668490860F1
:1022500007E0674800686749884202DA084664492F
:10226000086051480078012804D161480068FFF7F0
:102270004CFF02E00020FFF748FFFFF700FFFEF7EA
:102280006DF85D49096808445B4908605B4800686F
:10229000401C5A4908600846006864280BD156481B
:1022A0000068096890FBF1F0554908600020524928
:1022B00008605249086052480068B0F5347F04DA7B
:1022C0004F480068B0F5167F17DC4D480068B0F540
:1022D0008C6F04DA4A480068B0F57A7F0DDC484814
:1022E000006840F6B60188420DDA4548006800E013
:1022F0004CE040F63401884205DD42480068401C4D
:102300004049086002E000203E4908603D480068FE
:10231000B0F5FA7F02DD00202349087038480068D4
:10232000B0F53E7F04DA36480068B0F5167F16DC5B
:102330003348006840F26A41884204DA3048006855
:10234000B0F57A7F0BDC2E48006840F6CA0188425F
:1023500009DA2B48006840F63401884203DD142076
:10236000FEF728F902E06420FEF724F90B48007814
:1023700001280BD124480078401CC0B222490870C3
:10238000062803D10020087004490870002070BDA1
:10239000001002402C0400404400002045000020B2
:1023A00014012142900000204700002014812142A6
:1023B000910000204800002000802142342C014080
:1023C00098000020680000200000C8429C00002007
:1023D000640000209400002000F8E04500F8E0C50B
:1023E000580000205C000020780000200000A04180
:1023F0006000002044E4FFFF500000205400002053
:102400004C0000208C000020460000202DE9F04701
:1024100004460D462946204601F0B4FF3A490860BB
:10242000084601683948006801F0D8FC374908605F
:1024300037493648006801F069FF03D23448334910
:10244000086008E033493148006801F05FFE02D2BD
:1024500030482E490860304801682B48006801F078
:1024600091FF2E490860084601682D48006801F078
:1024700081FE80462B4901F01FFD06462348016876
:102480002948006801F076FE8246284901F014FDD3
:1024900080461D4801682648006801F06BFE8246B0
:1024A000204901F009FD8146414601F097FC0746AD
:1024B000314601F093FC1F4908601F48007820B99D
:1024C000002015490860114908600F48006812494A
:1024D000086018480068BDE8F0872DE9F04107461C
:1024E0000C460025002600BF07E03846FDF714FF24
:1024F00006440120FEF7A0FE6D1CA542F5D3B6FBF5
:10250000F4F0BDE8F0810000AC000020A000002045
:1025100000007A4400007AC4A4000020B00000202B
:102520007400002000002041700000200000C8421C
:102530006C000020A80000204700002070474FF0EA
:10254000000200B5134694469646203922BFA0E803
:102550000C50A0E80C50B1F12001BFF4F7AF09070F
:1025600028BFA0E80C5048BF0CC05DF804EB890000
:1025700028BF40F8042B08BF704748BF20F8022B43
:1025800011F0804F18BF00F8012B7047704770475B
:102590007047704710B500F009F8006810BD10B51D
:1025A000044600F003F8046010BD000000487047C6
:1025B0008805002000487047880500207546FFF711
:1025C000F9FFAE4605006946534620F007008546F0
:1025D00018B020B5FDF7EAFDBDE820404FF0000639
:1025E0004FF000074FF000084FF0000B21F00701FB
:1025F000AC46ACE8C009ACE8C009ACE8C009ACE83E
:10260000C0098D46704710B50446AFF300802046E0
:10261000BDE81040FDF7B1BD490050EAC12018BF28
:1026200004204A0D18BF40F0010040F2FF72B2EBE7
:10263000515F08BF40F00200012808BF0520704725
:102640002DE9F0414F1E00EBC7010446D1E900011E
:1026500015461E4637F006020DD02A46334601F0D5
:1026600081F87F1E04EBC703D3E9002300F0A2FD2D
:1026700037F00602F1D1022F25D0042F13D0062FF8
:1026800018BFBDE8F0812A46334601F06BF8D4E963
:102690000A2300F08FFD2A46334601F063F8D4E99F
:1026A000082300F087FD2A46334601F05BF8D4E9A1
:1026B000062300F07FFD2A46334601F053F8D4E9A3
:1026C000042300F077FD2A46334601F04BF8D4E9A5
:1026D000022300F06FFD2A46334601F043F8D4E9A7
:1026E0000023BDE8F04100F065BD00000022134664
:1026F0001046014900F01ABE0000F03F00F05ABD3C
:10270000002213461046114600F010BE40F201327E
:1027100000204FF0E04101F0DCBE0000024A002042
:10272000110701F0D6BE000001FDFFFF2DE9F04DBD
:102730001D460C4698B0174621F0004123F0004397
:10274000002814BF4FF0010C4FF0000C0CEB440CB0
:10275000FE4A0CEB02064FEA620C66452BD33E00A4
:1027600018BF012606EB45061644F94A964222D3C5
:10277000F84A53EA070C02D0944205D148B918B080
:1027800000201146BDE8F08D002808BF4FF0000C76
:1027900001D04FF0010C0CEB440212F5001F0AD8D7
:1027A000002F14BF4FF0010C4FF0000C0CEB450252
:1027B00012F5001F07D918B03A462B462146BDE84E
:1027C000F04DFFF79BBF0022DFF88CA3002CB8BFB1
:1027D000534526DADFF884C36345A8BF022220DA16
:1027E000DFF870C39C451CDCDFF874C30CEB235C82
:1027F000BCF1140F08DDCCF1340627FA06FC0CFA04
:1028000006F6BE420DD108E05FB9CCF1140623FAFA
:1028100006FC0CFA06F69E4203D10CF00102C2F14E
:10282000020251EA000C19D1002D17DA002C18BF52
:10283000022A01D0012A07D00220FFF7B0FE18B00B
:10284000BDE8F04DFFF752BF0220FFF7A8FEFFF7EB
:102850004DFF18B081F00041BDE8F08DB7F1000CDC
:102860006CD1534525D104F1804212F5801201BF8D
:1028700000280020B74918B008BFBDE8F08DB54862
:10288000884207DC002DA1BF6046294618B0BDE88C
:10289000F08D07E0281E05DA80F0004118B0604690
:1028A000BDE8F08DAF497944D1E9000118B0BDE829
:1028B000F08DDFF8A0C2634525D1002D1FDA19B1D4
:1028C000514512D1D8B909E0002840F0EC82A24A63
:1028D000214618B062F31E01BDE8F08D00202146AC
:1028E00018B060F31E01BDE8F08D08DA18B0234679
:1028F000BDE8F04D02460020614600F017BD18B05B
:102900002146BDE8F08D514518DAB5F1804F0DD064
:10291000A5F1005CBCF1FF5C10D1B4F1000C0DDB43
:1029200018B06146BDE8F04D00F0ECBB234618B08E
:102930000246BDE8F04D194600F014BF060024F031
:10294000004C3BD1D9B1514533D1002C06DD002DCF
:10295000A1BF0020514618B0BDE8F08D002C01DD6C
:10296000002D1BDB002C13DA002D11DB012A4FF0A8
:10297000000014BF78497C4918B0BDE8F08D022AE8
:1029800018BF002C0AD0012A08D1002C06DA0AE070
:10299000002CB8BF002D11DA012A04D0002018B095
:1029A0000146BDE8F08D18B000204FF00041BDE8B1
:1029B000F08DA1F14050B0F17F601AD0012000EB02
:1029C000E47050EA020421D0624C521E4FF0000B1A
:1029D000104304BF4FF0000B644C654883427CDD1C
:1029E000644A654893421FDD884217DB002D25DBD2
:1029F00037E0002C00DA4AB1022A0CBF01204FF068
:102A0000FF3018B0BDE8F04D00F045BE0120FFF7E3
:102A1000C6FD18B0BDE8F04DFFF772BE4D4A8A42C0
:102A200002DC002D0ADC1CE0814202DA002D18DAFB
:102A300004E0484B994220DD002D12DD0220FFF713
:102A4000AEFDFFF763FE05460E460022534658468C
:102A5000214600F087FE18B066F31E012846BDE847
:102A6000F08D0220FFF79BFDFFF758FE0A46214636
:102A700018B062F31E01BDE8F08D002230466146B9
:102A800001F096F880460E466FF0010201F021FD3C
:102A90004FF05532394B00F099FF4246334600F073
:102AA00061FE0022364B00F091FF824642463346DB
:102AB00004911046194600F055FE5246049B00F062
:102AC00051FE8A4600904FF0C0422E4B40463146A0
:102AD00000F048FE2C4A2B4B00E027E0CDE9060130
:102AE0005146009800F03EFE82460191274A284B4D
:102AF0004046314600F036FE5246019B01F058F840
:102B000082460B4602460591DDE9060100F052FBC4
:102B1000DDE9062300268846304601F049F8524692
:102B2000059B00F053FF024600F07EB90020B1F58E
:102B3000801F07DA35223046614601F0CAFC06469E
:102B40006FF0340000EB215024E00000FFFF1F0075
:102B5000FFFF0F000000F03F0000F07F0000404347
:102B600001FCFFFFA62700000000F0FF0000F0BFFF
:102B70000000E0410000F043FFFFEF3F5555D53F17
:102B80000000E03F4715F73FFE822B6544DF5DF80C
:102B90000BAE543EA0F2FF300190C1F3130040F0A1
:102BA0007F6141F040510291FE498842D8BF002028
:102BB00004DDFD498142C8BF012001DD0D9008E020
:102BC00000200D900198401C01900298A0F5801003
:102BD00002900299F54878440B910D9900EBC100E1
:102BE000D0E900230F9330460A920B9900F0E0FFE2
:102BF000CDE90601DDE90A2130460F9B00F0DAFA43
:102C000002460B460020EA4900F090FB059102467F
:102C10000B460090DDE9060100F0A4FD1490E548A4
:102C20008A464FF0000878440299006812904FF0ED
:102C3000005040EA61010D980F9B01EB804000F5C8
:102C4000002109910A9A129800F0B2FF32460B9BBC
:102C500000F0BCFE4246534600F084FD0646029159
:102C600040465146099B129A00F07CFDDDE906239F
:102C700000F0ACFE3246029B00F09AFF059B009AE2
:102C800000F070FD0091149A0490534610461946C6
:102C900000F068FD06460246C7480B460291062131
:102CA0007844FFF7CDFCCDE90510029B3246104673
:102CB000194600F057FDDDE9053200F053FD05919E
:102CC0000646534640461946149A00F073FA009B94
:102CD000049A00F047FD3246059B00F06BFACDE9FF
:102CE0000510424653461046194600F03BFD0022AF
:102CF000B24B02910A9000F05DFADDE9053200F076
:102D000059FA0E464246AD4B404600F051FF029B39
:102D10000A9A00F04DFFDDE9053200F057FE424609
:102D200002910A9033461046514600F01BFDCDE952
:102D300006015346149A02990A9800F013FD8A4638
:102D40000290334642460099049800F00BFD53462A
:102D5000029A00F02FFA82460B4602460591DDE901
:102D6000060100F027FADDE9062300208846064622
:102D700000F01EFF5246059B00F028FE8246099196
:102D80004FF060428E4B3046414600F0EBFC049021
:102D900006918C4A8A4B5046099900F0E3FC824622
:102DA0000291894A894B3046414600F0DBFC52468D
:102DB000029B00F0FFF9864B7B440D9A03EBC203A4
:102DC000D3E9002300F0F6F90E900791019800F086
:102DD00062FC0591DDE9061382460E9A049800F024
:102DE000E9F97C4A7A440D9B02EBC303D3E9002343
:102DF0000093029200F0DEF95246059B00F0DAF9EA
:102E00000026884652463046059B00F0D1FE009BC6
:102E1000029A00F0CDFE069B049A00F0C9FE079BC3
:102E20000E9A00F0D3FD024600200B460290384671
:102E3000294600F097FC824601912B4638461946F8
:102E4000029A00F0B5FE3246434600F08BFC524633
:102E5000019B00F0AFF907468A46324643462946B1
:102E6000029800F07FFC05460E463A46534600F0B5
:102E7000A1F9594A8846914221DBA8EB020353EAA3
:102E8000000210D12A46334600F092FECDE904013B
:102E9000524A534B3846514600F08CF9DDE9042381
:102EA00000F05EFD21D20220FFF779FBFFF72EFC38
:102EB0000A46214618B062F31E01BDE8F08D494B69
:102EC00028F000429A4210D3474A08EB020353EA23
:102ED00000027FF4C6AD2A46334600F069FE3A464A
:102EE000534600F03DFD7FF6BCAD0022019228F074
:102EF00000403E493E4A01EB2051824223DA481C01
:102F00004FF4801121FA00F040443A4AC0F30A51CC
:102F10007A44394BA1F2FF31CB4020EA0303C0F3DE
:102F2000130040F48010C1F11401C84012680190F0
:102F3000B8F1000FBCBF404201902846314600F076
:102F400037FE05460E462A4633463846514600F0BF
:102F500031F94FF000084246284B4046059100F0F9
:102F600001FCCDE90601264A264B4046059900F0B2
:102F7000F9FB009102902A4633464046059900F03D
:102F800017FE3A46534600F021FD1F4A1F4B00F042
:102F9000E9FB009B029A00F00DF9074688460246BD
:102FA0000B4635E08E9803007AB60B00EE23000046
:102FB0000000F03F262400005423000000000840D9
:102FC00009C7EE3FFD033ADCF5015B14E02F3EBE7E
:102FD0002C220000F021000000009040FE822B65B2
:102FE0004715973C00CC904000346F3F01FCFFFF39
:102FF0000000E03F3C210000FFFF0F00432EE63FB2
:10300000396CA80C615C20BEEF39FAFE422EE63F17
:10301000DDE9060100F0CEF8DDE9062305460E469F
:1030200000F0C6FD3A46434600F0D0FC0F462A4663
:10303000334600901046194600F094FB8246024643
:103040002E4888460B4605217844FFF7F9FA524688
:10305000434600F087FB2A46334600F0B7FC804623
:103060008A463B4628463146009A00F07BFB3B46A9
:10307000009A00F09FF80691009000224FF08043E4
:103080004046514600F094FD0F460C904246534690
:103090002846314600F066FB3B460C9A00F046F9A4
:1030A000069B009A00F084FD2A46334600F080FD1E
:1030B0000022134B00F08AFC054601980E4601EBF6
:1030C00000510815002810DC28463146019A01F00D
:1030D00000FAFFF7A1FA042808BFFFF71FFB2846F4
:1030E0003146019A01F0F5F905460B4618B02A461B
:1030F00058462146BDE8F04D00F034BBDC1F00000F
:103100000000F03F2DE9F04106460F4600F06AFC52
:10311000041E0D4618BF0120284320F00040C0F1D6
:103120007F6000F1E040C00F0ED0301C18BF0120BE
:10313000384320F00040C0F17F6000F1E040C00F54
:1031400004BF0120FFF72BFA20462946BDE8F08195
:1031500021F00042A2F16052B2F5801F01F000435D
:1031600028BFD2F17F6C0BD95FEA001C43EAC20290
:1031700042EB507018BF704728BF20F00100704725
:10318000B2F5801FBCBF184670474FEA410C1CF5D2
:10319000001F02D2084601F0B4B870B500F08CFBF5
:1031A00000000089FFF7F6BF4FF00040A0F5800057
:1031B0007047000010B591EA030F48BF83F0004349
:1031C00000F1FE84841A71EB030C05D2121943EB53
:1031D0000C03001B61EB0C01DFF824E14FEA1154F2
:1031E000A4EB135C1EEA430F18BF9EEA445F73D042
:1031F00023EA0E03DCF1200E21EA045143F480138C
:1032000032D322FA0CFE10EB0E0023FA0CFE41EB37
:103210000E01CCF1200E03FA0EFE10EB0E0051F160
:103220000001B1F5801FCCF1200E32D201EB045128
:1032300012FA0EF2BDE8104058BF7047401C38BF6C
:103240005FEA420218BF7047002814BF20F0010057
:1032500041F100014FEA410313F5001F38BF7047E9
:10326000A1F1C04100F076BB012A43EB0302ACF1AF
:10327000200CDCF11F0E32BF4FF0000E23FA0CF3CE
:1032800010EB030041EB0451B4EB115FD0D0A1EB84
:10329000045101F5801149085FEA300001EB045147
:1032A0000ED350F1000038BF12FA0EFE08D1BDE86F
:1032B0001040C9E7401C38BF5FEA4202CAD1C3E7E9
:1032C000BDE810404FEA410313F5001F38BF7047B7
:1032D000A1F1C04100F03EBB9EEA445F08D011EA74
:1032E0005E0FBDE8104004BF01F0004100207047B0
:1032F000BDE8104070B500F0DFFA00BF64FBBE3ED1
:103300000000E0FF02494FF0000001F0B0B800BF3C
:103310000000F87F491058BFC1F140415B1058BF11
:10332000C3F140438B42EFF3008070472DE9C04169
:1033300030B4DFF8A0C23CEA111418BF3CEA131401
:1033400000F0EC8081EA03051CEA111444EAD5740C
:1033500018BF1CEA131500F0C780A4EB05044FF05A
:10336000004545EAC12145EAC32341EA505143EAF9
:10337000525304F17F74994204F500344FEAC0209F
:103380004FEAC22208BF904200F09C804FEA1365CA
:103390000FF24016765D4FEA134506FB05F7C7F1BD
:1033A000807706FB07F74FEAD737A7FB036876421B
:1033B000C8F58038A7FB06CE38BFA8F1010807FB87
:1033C00008E64FF0000EA6FB028CE6FB03CEDCF114
:1033D000000CCEF1004E38BFAEF1010EA6FB0C582A
:1033E0004FF000074FF00005E6FB0E87A1FB08C673
:1033F000A0FB07CE16EB0E0645F10005E1FB0765C5
:1034000015F1E04E7EBFA4F580345FEA46066D41BB
:1034100016F1800745F100054FEA17274FEA0666C7
:1034200047EA0567A6F1DE46B6F1805F4FEA15254B
:103430001FD9384624F0010C05EBC471BCF1FE6FB6
:1034400001EB0C1102D8F0BCBDE8008124425CBF46
:1034500001F5801E9EEAC47F02D4F0BCBDE8008165
:10346000244238D4F0BCA1F1C041BDE8004100F0D5
:1034700071BA4FEAD22242EA43524FEAD323A7FB62
:1034800002864FEAD02040EA415007FB03661EEA5D
:103490000E0F4FEAD12105FB026658BFA6EB00567E
:1034A000B6EB00564FEA520E4EEAC37E18EB0E0EF4
:1034B00056EB530EBDD518EB02085E417F1C55F14B
:1034C0000005B6E74FF480154FF000074FF00006F7
:1034D0004FF00008ADE7F0BC4FF0000001F1C04133
:1034E00001F00041BDE8008111EA0C1F0CEA131540
:1034F00000D00CE013EA0C1F00F025804FF0000014
:10350000F0BC81EA030101F00041BDE80081F0BC9C
:10351000BDE8004181EA030100F01CBAF0BCBDE83F
:10352000004170B500F0C8F9097EFC3E00F007B814
:1035300081EA03014FF0000001F00041704781EA89
:10354000030100F007BAF0BCBDE800414FF00000F5
:1035500021497047FFFDFBF9F7F5F4F2F0EEEDEBD2
:10356000E9E8E6E4E3E1E0DEDDDBDAD8D7D5D4D381
:10357000D1D0CFCDCCCBCAC8C7C6C5C4C2C1C0BFCD
:10358000BEBDBCBBBAB9B8B7B6B5B4B3B2B1B0AFD3
:10359000AEADACABAAA9A8A8A7A6A5A4A3A3A2A1B7
:1035A000A09F9F9E9D9C9C9B9A9999989797969572
:1035B00095949393929191908F8F8E8E8D8C8C8B0E
:1035C0008B8A898988888787868585848483838296
:1035D000828181800000FF070000F87F4FEA4103ED
:1035E0004FEA5353A3F58063D3F11E03C8BFD3F151
:1035F000210C0CDD4FF0004242EAC12242EA505257
:1036000032FA03FC8CEAE17CACEBE1707047102BE2
:10361000C4BF0020704703F5787CBCF1FF3F04D0A5
:103620006FF0004282EA2100704770B500F044F963
:103630004992248000207047F2E700004FEA1153BE
:10364000A3F58063D3F11E03A8BFD3F1200C08DBE0
:103650004FF0004242EAC12252EA505232FA03F0DD
:10366000704709420BD4102BC4BF0020704703F5EC
:10367000787CBCF1FF3F05D04FF0FF3070474FF032
:103680000000704770B500F017F900BF4992248020
:1036900000207047F0E710F0004248BF4042B0FA07
:1036A00080F310FA03F10AD0C3F11D0303F5806320
:1036B0004FEA415002EB035202EBD12170474FF029
:1036C00000007047B0FA80F310FA03F10AD0C3F19A
:1036D0001D0303F580634FEA41504FEA035202EBAA
:1036E000D12170474FF000007047000051EA030CF1
:1036F00017D41CF5801F58BFBCF5801F00F1068051
:10370000994218BF704708BF9042704707D711F51C
:10371000801F58BF13F5801F19D499427047894202
:1037200070471CF5801F08D5BCF5801FF7D58B426C
:1037300018BF704708BF824270474FF4001C1CEB53
:10374000410F38BF1CEB430F01D28B42704770B55D
:1037500000F0B2F8922449004FF000514FF080532E
:10376000FFF7D8BDDFF848C170B51CEA111E1EBFB7
:103770001CEA13159EEA0C0F95EA0C0F00F06F80FF
:1037800081EA030423EA4C134EEAD47E21EA4C1169
:1037900041F4801143F48013AE44A1FB024CA0FB22
:1037A0000365AEF17F7E361955EB0C05A1FB034C8A
:1037B0004CF10003A0FB021C16EB0C06654153F113
:1037C0000003094218BF46F0010613F4007F0BD135
:1037D0004FEA03314FEA0530340341EA155140EA1C
:1037E00016506FF003020AE04FEAC3214FEAC520EA
:1037F000F40241EA555140EA56506FF0020202EBE2
:103800002E4201EB025585EACE710AD05FEA440CE4
:1038100018BF24F0004450F1000041F1000120EAFB
:10382000D47040F2FE7C624500D270BDA84214BF45
:103830004FF080444FF04044002E08BF0024BEF1FA
:10384000806FA8BFA1F1C041BDE8704080F28280C6
:103850004FF0000001F1C04101F0004170479EEAC5
:103860000C0F0CEA131518BF95EA0C0F06D04FF099
:10387000000081EA030E0EF0004170BD00F01CF85C
:103880008900013E00F007B800F009B84FEA430C88
:103890005FEA5C5C08D081EA030100F05BB84FEAA4
:1038A000410C5FEA5C5CF6D14FF0000001497047C3
:1038B0000000FF070000F87F0EF1020E2EF0030E4D
:1038C0005EF8046B364205D4012A43EB030515F577
:1038D000001F12D8012841EB010C1CF5001F0CD869
:1038E0000ED14FEAD17C15F5001F0CEB4C0C0CF1FE
:1038F000020C08BF4CEBD37C04E04FF0080C01E055
:103900004FEAD37C0CEB4C0526FA05F606F00706C9
:10391000B6F1040C06D20EEB860CBDE870404CF0FC
:10392000010C6047DFE80CF0090B02024FF0004188
:103930004FF00000A1F5002170BD19461046012886
:1039400051EB010418BFD4F5001484BF002001F02E
:10395000004170BD0808A0F500114FEA3101704721
:1039600053EA010C17D41CF5801F58BFBCF5801F0B
:1039700000F106808B4218BF704708BF8242704733
:1039800007D713F5801F58BF11F5801F19D48B423C
:1039900070479B4270471CF5801F08D5BCF5801FFF
:1039A000F7D5994218BF704708BF904270474FF44F
:1039B000001C1CEB430F38BF1CEB410F01D2994296
:1039C00070470FB40CBC03BCFFF7C1BE91EA030FF4
:1039D00010B581F000413FF5F5AB83F0004300F0F6
:1039E000EFB800002DE9F04101F5801CBCF5001F87
:1039F000C0F2C3804FEA115C21EA0C510CF1FD0CBE
:103A000041F480115FEA5C0C0CF5C07C01D34000EE
:103A100049413DA4890241EA905187028E0E0A0C69
:103A2000A45D04FB04F602FB06F6C6F14046A4FBC7
:103A30000662F60D46EA422606FB06F4A4FB0123C5
:103A40005242C3F1404338BF5B1EA6FB0242002432
:103A5000E6FB0324D20B42EA4446A6FB0623A1FB65
:103A600002E2A3FB07E4A4184FF0000252F10002A7
:103A7000E3FB01426442C2F1404E38BFAEF1010E99
:103A8000A6FB04234FF00002E6FB0E32A2FB034626
:103A90004FF00004B61954F10004E2FB0264A1FBEC
:103AA00006E6A4FB07E816EB08064FF0000858F1FD
:103AB0000008E4FB01687642C8F1405838BFA8F11D
:103AC0000108A2FB06E4A3FB08E52D194FF0000452
:103AD00054F10004E2FB0854A1FB05E6A7FB04E84F
:103AE00018EB06084FF0000656F10006E1FB0486CD
:103AF00018F1200556F10006A809A8F11B08B10924
:103B000008F03F08B8F10A0F40EA86601CD901EBC3
:103B10000C51BDE8F08100BFFCF5EEE8E2DDD8D342
:103B2000CFCBC7C3C0BDB9B6B4B1AEACA9A7A5A32E
:103B3000A19F9D9B9A9896959392908F8D8C8B893F
:103B40008887868584838281A0FB006800FB01F260
:103B500008EB4208B8EB872807D5341858EB010466
:103B6000D5D5401C51F10001D1E7341A78EB01049E
:103B7000CDD4401E71F10001C9E75FEA4C0C5FEA49
:103B80009C5C0DD105D34FF0000001F00041BDE871
:103B9000F081BDE8F04170B5FFF78EFE6DDBFFBE32
:103BA000BDE8F0414FF00000004970470000F87F89
:103BB00010B591EA030F48BF83F000433FF502AB15
:103BC000841A71EB030C07D212198CF0004C43EBF2
:103BD0000C03001B61EB0C01DFF8A4E14FEA115468
:103BE000A4EB135C1EEA430F18BF9EEA445F00F08B
:103BF000B08023EA6E03524221EA0451C3EB6E0304
:103C000038BF5B1EDCF1200E25D322FA0CFE10EB30
:103C10000E0043FA0CFE41EB0E01CCF1200E03FA2C
:103C20000EFE10EB0E0051F10001CCF1200E29D454
:103C300012FA0EF201EB0451BDE8104058BF704774
:103C4000401C1CBFB2F1004F704700280CBF491C3C
:103C500020F00100704712EB020E43EB030218BF85
:103C60004FF0010E4EEA4202ACF1200CDCF11E0EC8
:103C700054D943FA0CFE10EB0E0051F1FF31CCF198
:103C80001E0ED5D50EF1010E12FA0EFE404141EB8B
:103C9000010101EB445C5FEA5C5C10D910EBDE7063
:103CA00001EB045138BFBEF1004FBDE8104018BF12
:103CB000704700280CBF491C20F00100704730D22B
:103CC0004FEAD42C11F5001124F400641BD0B1FA92
:103CD00081F20B3AA41AA41ED2F12003914030FACB
:103CE00003F31943904001EBCC71002C01EB04511C
:103CF000BDE81040A8BF704701F1C0414FF000007F
:103D000001F000417047B0FA80F310FA03F100D1DE
:103D100010BDE41A173C4805C90AE4E701EB045159
:103D200010BD491001EB0451BDE810404FEA3000CE
:103D300002E04FF0000170474A0008BF0042F8D08F
:103D4000B2F5001F28BF704701F000414FF000009E
:103D500070479EEA445F07D011EA5E0FBDE810404D
:103D600004BF002100207047BDE8104070B5FFF788
:103D7000A3FD00BF40DFF63E83F0004110467047D0
:103D80000000E0FF43004FEAD30C4FEA3C0C4340F5
:103D90001FBF40070CF1605113F0FE4F70471CF03D
:103DA000006F03D100200CF0004170470CF000437D
:103DB00043EA507010B540EACC0000F05CFA00BF56
:103DC000000000924FEA0001FFF7C4BD4FF0004130
:103DD0004FF00000A1F500217047000090EA010FAC
:103DE00048BF81F0004100F1D482421A3CBF801AE2
:103DF00089184FEAD0524FF07F4C1CEA410FA2EBDA
:103E0000D15318BF9CEA026F00F03B804FF0004C8A
:103E10004CEA00204CEA012121FA03FC10EB0C0CC7
:103E20001ED202F1FF325FEA1C2040EBC25038BFC5
:103E300070471CF07F0F4FEA400C18BFBCF17F4F5A
:103E400038BF7047C3F12003994008BF20F001003C
:103E5000BCF17F4F38BF7047A0F1C04000F051BAAD
:103E60004FEA3C00000A40EBC25028BF1CF0FF0F95
:103E70004FEA400CE6D018BFBCF17F4F38BF704707
:103E8000EAE79CEA026F05D010EA5C0F08BF00F079
:103E90000040704710B500F0EEF900BF64FBBE3E75
:103EA000401058BFC0F14040491058BFC1F14041D7
:103EB0008142EFF3008070474FF47F0C1CEAD01270
:103EC0001EBF1CEAD11392EA0C0F93EA0C0F00F00C
:103ED000858090EA010F48BF42F4807240F4000CE4
:103EE00041F400002CF07F4120F07F4000B581427A
:103EF000A2EB03020FF2081CACEB504EC0F1000025
:103F00009EF800E04FEA4E0E00FB0EFC38BF490061
:103F10004FEA2C1C02F5FA020CFB0EF34FEACE1E00
:103F20004FEA112C4FEAC1210EEB635E42EB2242B5
:103F30000EFB0CFC4FEA1C5300FB03114FEA112C43
:103F40004FEA01310EFB0CFC4FEADC4C00FB0C117C
:103F5000C14228BF09184CEB03335DF804EB10EBAA
:103F6000410143EBC250B2F57C0F38BF704729D5F1
:103F700012F0F00F1CBF00F1C04000F0004070478D
:103F8000008182838485868788898B8C8D8E8F9132
:103F90009293959697999A9C9D9FA0A2A3A5A7A856
:103FA000AAACAEB0B2B3B5B7B9BCBEC0C2C5C7C982
:103FB000CCCED1D4D7D9DCDFE2E6E9ECF0F3F7FAE6
:103FC000FE0000004FEA400C0CF1807CBCF17E4FFB
:103FD00028BF7047B0F1C04000F093B990EA010FDC
:103FE0000CEAD11348BF42F48072624538BF634582
:103FF00007D213F47F0F16D080EA010000F00040D2
:10400000704710B500F037F9097EFC3E00F005B8A6
:1040100080EA010000F00040704780EA010000F0F3
:10402000004000F06EB912F47F0F04BF02487047E1
:1040300080EA010000F065B90000C07F41000B0E6E
:10404000D3F19E0208D950F400034FEA032323FA68
:1040500002F048BF4042704710B500F00CF900BFB5
:1040600049922480002070476FF0004282EA2000CD
:1040700070470000C10DD1F19E0206DB4FEA00231C
:1040800043F0004323FA02F07047004207D54FEA9D
:104090004001B1F1FE4F02D24FF00000704710B561
:1040A00000F0E9F849922480002070476FEA200070
:1040B0007047000010F0004148BF4042B0FA80F362
:1040C00010FA03F2C3F19D030BD051EAC35101EB87
:1040D0001220530638BF704700F1010008BF20F0DE
:1040E00001007047B0FA80F310FA03F2C3F19D03A8
:1040F0000AD0D90501EB1220530638BF704700F1F2
:10410000010008BF20F001007047000050EA010CD8
:1041100000F113801CF5000F58BFBCF5000F01D44F
:104120008842704707D710F5000F58BF11F5000FF0
:1041300015D488427047894270471CF5000F04D59A
:10414000BCF5000FF7D5814270474FF0807C1CEB27
:10415000400F38BF1CEB410F01D28142704710B5B0
:1041600000F089F8922449004FF000504FF0805140
:10417000FFF796BE4FF47F0C1CEAD0121EBF1CEA5C
:10418000D11392EA0C0F93EA0C0F00F0478090EAEB
:10419000010F48BF42F480724FF0004C4CEA0020FF
:1041A0004CEA012102EB0302A0FB0113A2F500027D
:1041B000002918BF43F001035B0028BF4FEA330317
:1041C00042EB22425FEA132C4CEBC2502EBFBCEBF9
:1041D000436FB2F57C0F70474FEA036CBCF1004FA0
:1041E00008BF20F00100B2F57C0F38BF70470BD537
:1041F00082F0FF0212F5803FC8BF704700F1C04057
:10420000D8BF00F00040704700F5000C5FEA4C0C8E
:1042100048BF7047B0F1C04000F073B890EA010F9A
:104220000CEAD11348BF42F48072624538BF63453F
:1042300004D280EA010000F00040704710B500F0A1
:104240001AF800BF8900013E00F007B800F009B875
:104250005FEA410C5FEA1C6C08D080EA010000F0C4
:1042600050B85FEA400C5FEA1C6CF6D14FF000409A
:10427000A0F5800070470EF1020E2EF0030E5EF8DE
:10428000044B244204D44FEA4102B2F17F4F11D8CB
:104290004FEA4003B3F17F4F0CD80ED14FEAD07CE8
:1042A000B2F17F4F0CEB4C0C0CF1020C08BF4CEB45
:1042B000D17C04E04FF0080C01E04FEAD17C0CEB1C
:1042C0004C0324FA03F404F00704B4F1040C06D2FE
:1042D0000EEB840CBDE810404CF0010C6047DFE8A9
:1042E0000CF0070802024FF00040A0F5800010BD5E
:1042F0000846420018BFD2F1807288BF00F000402B
:1043000010BDFF2141EAD050C005704751EA000CB2
:1043100000F113801CF5000F58BFBCF5000F01D44D
:104320008142704707D711F5000F58BF10F5000FF5
:1043300015D481427047894270471CF5000F04D59F
:10434000BCF5000FF7D5884270474FF0807C1CEB1E
:10435000410F38BF1CEB400F01D28842704780EA02
:10436000010081EA000180EA0100FFF7F8BE80F059
:10437000004090EA010F7FF538AD81F0004100F078
:1043800008B8000090EA010F48BF81F000413FF5F6
:104390002CAD421A04D882F00042A0EB0200114476
:1043A0004FEAD0524FF07F4C1CEA410FA2EBD153A1
:1043B00018BF9CEA026F4AD04FF0004C4CEA002034
:1043C0004CEA012121FA03FCB0EB0C0C0FD412F0E3
:1043D000FE0F36D05FEA4C001DD5001240EBC250F4
:1043E00038BF70471CF03F0F18BF70470BE0A2F1B9
:1043F00001025FEA1C2040EBC25038BF70471CF03E
:104400007F0F18BF7047C3F12003994014BF401EAF
:1044100020F00100704780084FEA122308BF704760
:10442000B0FA80FCA2EB0C02CCF1280C60FA0CF084
:1044300093EA122F04BF00EBC25070474FEAC370DB
:104440007047130A5FEADC1008BF7047F6E79CEA82
:10445000026F04D010EA5C0F08BF0020704710B54F
:10446000FFF709FF40DFF63E81F0004070470CF097
:104470000F03092B08BF082000F059800A2B0BD02E
:10448000082B18BF704708BF1CF0400F0AD04FF030
:1044900000004FF0000170471CF0400F18BF4FF0B4
:1044A000004070471CF0100F08D020F0704300F05F
:1044B0007F4242EAD3014FEA4370704700F0604008
:1044C00021F07F4242EA000201F07F4040EA727030
:1044D00070474FF0FF0C4CF4E06C1CEA11531CBF0A
:1044E0009CEA030C9445C2BFDA4201EB02517047CB
:1044F000002B0DD0BCF1000F0FD0002A01F00041BD
:10450000A4BF41F0E04141F07F614FF000007047EF
:1045100001F000414FF00000704750EA01334FF0C6
:104520009B0C18BF4CF0806C7EF4ECAE70471CF412
:10453000801F11D01CF4E02F03D06FEACC3149006A
:1045400070474FF04050EFF3008222F0704242EA91
:10455000000282F3008870474FF0000070470000AF
:1045600000000000000000000000000000003F40CC
:10457000000000000000000030004000300040005B
:10458000000009000BC03D000BC03D00090018C031
:1045900024407FE0224031800000180024C01B002E
:1045A0000D803240018003801C4027401C80074062
:1045B000004010006000000000000000000000004B
:1045C000000000001F8020404020000040202040CC
:1045D0001F8000000000090006001F80060009007F
:1045E0000000040004003F800400040000000010EC
:1045F000006000000000000000000400040004004F
:104600000400040000000000004000000000000062
:104610000000002001C006003800400000001F809C
:104620002040204020401F800000000010403FC07C
:1046300000400000000018C02140224024401840E3
:10464000000010802040244024401B800000020015
:104650000D0011003FC0014000003C802440244078
:104660002440238000001F802440244034400380E5
:1046700000003000200027C03800200000001B8010
:104680002440244024401B8000001C0022C0224003
:1046900022401F80000000000000084000000000D1
:1046A00000000000000004600000000000000000A6
:1046B00004000A00110020804040090009000900A0
:1046C00009000900000000004040208011000A009D
:1046D00004001800200023402400180000001F8060
:1046E0002040274029401F400000004007C03900FB
:1046F0000F0001C0004020403FC0244024401B80E8
:1047000000001F80204020402040308000002040DA
:104710003FC0204020401F80000020403FC0244078
:104720002E4030C0000020403FC024402E0030000A
:1047300000000F0010802040224033800200204003
:104740003FC0040004003FC02040204020403FC044
:104750002040204000000060202020203FC020009A
:10476000200020403FC024400B0030C020402040AB
:104770003FC020400040004000C03FC03C0003C09C
:104780003C003FC0000020403FC00C4023003FC021
:1047900020001F802040204020401F80000020403B
:1047A0003FC024402400180000001F802140214009
:1047B00020E01FA0000020403FC02440260019C078
:1047C000004018C0244024402240318000003000C6
:1047D00020403FC020403000000020003F800040CB
:1047E00000403F80200020003E0001C0070038004C
:1047F0002000380007C03C0007C0380000002040FF
:1048000039C0060039C0204000002000384007C0F1
:10481000384020000000304021C02640384020C0F1
:104820000000000000007FE0402040200000000069
:1048300070000C0003800040000000004020402079
:104840007FE0000000000000200040002000000089
:1048500000000010001000100010001000100000F8
:104860000000400000000000000000000280054041
:10487000054003C0004020003FC0044004400380C6
:1048800000000000038004400440064000000000D7
:104890000380044024403FC00040000003800540E6
:1048A000054003400000000004401FC02440244095
:1048B0002000000002E00550055006500420204072
:1048C0003FC00440040003C000400000044027C073
:1048D00000400000000000100010041027E000005D
:1048E000000020403FC00140070004C004402040B9
:1048F00020403FC000400040000007C0040007C047
:10490000040003C00000044007C00440040003C0CA
:1049100000400000038004400440038000000410B5
:1049200007F00450044003800000000003800440AE
:10493000045007F00010044007C0024004000400C7
:104940000000000006400540054004C000000000D3
:1049500004001F8004400040000004000780004065
:10496000044007C000400400070004C001800600A6
:104970000400060001C0070001C00600000004405A
:1049800006C0010006C0044000000410071004E047
:104990000180060004000000044005C006400440F9
:1049A00000000000000004007BE040200000000048
:1049B00000000000FFF000000000000040207BE04D
:1049C00004000000000040008000400020002000A3
:1049D0004000000000000000000000000000000097
:1049E00000000000000000001FCC000C00000000D0
:1049F0000000000008003000600008003000600087
:104A00000000022003FC1E20022003FC1E200220C6
:104A1000000000000E1811043FFF10840C78000005
:104A200000000F0010840F3800C007781884007849
:104A3000000000780F8410C411240E9800E4008454
:104A4000000808006800700000000000000000007E
:104A5000000000000000000007E0181820044002D9
:104A60000000000040022004181807E000000000C9
:104A700000000240024001800FF00180024002402D
:104A800000000080008000800FF80080008000801F
:104A900000000001000D000E0000000000000000FA
:104AA0000000000000800080008000800080008006
:104AB00000800000000C000C00000000000000005E
:104AC00000000000000600180060018006001800C9
:104AD0002000000007F0080810041004080807F080
:104AE00000000000080408041FFC0004000400008B
:104AF000000000000E0C10141024104411840E0C41
:104B0000000000000C1810041104110412880C702D
:104B10000000000000E00320042408241FFC0024FF
:104B2000000000001F9810841104110410881070F8
:104B30000000000007F008881104110418880070B4
:104B4000000000001C00100010FC13001C001000EE
:104B5000000000000E3811441084108411440E38F7
:104B6000000000000700088C10441044088807F07B
:104B70000000000000000000030C030C0000000017
:104B8000000000000000000101060000000000001D
:104B900000000000008001400220041008081004FA
:104BA0000000022002200220022002200220022017
:104BB00000000000100408080410022001400080DA
:104BC000000000000E001200100C106C10800F008E
:104BD000000003E00C1813E4142417C4082807D0BD
:104BE00000000004003C03C41C40074000E4001C1B
:104BF000000410041FFC1104110411040E8800703D
:104C0000000003E00C1810041004100410081C101D
:104C1000000010041FFC100410041004080807F022
:104C2000000010041FFC1104110417C4100408181C
:104C3000000010041FFC1104110017C01000080030
:104C4000000003E00C181004100410441C7800400D
:104C5000000010041FFC10840080008010841FFCE2
:104C600010040000100410041FFC100410040000C5
:104C7000000000030001100110011FFE10001000D1
:104C8000000010041FFC110403801464181C10049D
:104C9000000010041FFC1004000400040004000CB9
:104CA000000010041FFC1F0000FC1F001FFC10046C
:104CB000000010041FFC0C04030000E010181FFC8F
:104CC000100007F00808100410041004080807F08A
:104CD000000010041FFC10841080108010800F0052
:104CE000000007F0081810241024101C080A07F20E
:104CF000000010041FFC1104110011C011300E0C33
:104D0000000400000E1C11041084108410441C3890
:104D100000001800100010041FFC10041000180000
:104D2000000010001FF810040004000410041FF815
:104D3000100010001E0011E0001C007013801C0009
:104D400010001FC0103C00E01F0000E0103C1FC01E
:104D500000001004180C163401C001C01634180CE1
:104D6000100410001C00130400FC13041C001000AD
:104D700000000804101C1064108413041C04101894
:104D800000000000000000007FFE400240024002E0
:104D90000000000030000C0003800060001C0003D5
:104DA000000000004002400240027FFE00000000C0
:104DB00000000000000020004000400040002000F3
:104DC00000000001000100010001000100010001DC
:104DD0000001000040004000200000000000000032
:104DE000000000000098012401440144014400FC3B
:104DF000000410001FFC00880104010400880070FA
:104E00000000000000700088010401040104008813
:104E100000000000007000880104010411081FFC5C
:104E20000004000000F8014401440144014400C8AA
:104E300000000000010401040FFC11041104110022
:104E40001800000000D601290129012901C9010625
:104E5000000010041FFC008401000100010400FC9C
:104E6000000400000104190419FC000400040000FF
:104E700000000000000300010101190119FE0000FB
:104E8000000010041FFC0024004001B4010C0104C8
:104E900000000000100410041FFC000400040000C7
:104EA0000000010401FC0104010001FC01040100F7
:104EB00000FC010401FC008401000100010400FC6D
:104EC0000004000000F8010401040104010400F8DA
:104ED0000000010101FF0085010401040088007049
:104EE000000000000070008801040104010501FFBA
:104EF00000010104010401FC00840104010001809F
:104F00000000000000CC01240124012401240198A8
:104F1000000000000100010007F801040104000086
:104F20000000010001F8000400040004010801FC75
:104F30000004010001800170000C0010016001807C
:104F4000010001F0010C003001C00030010C01F043
:104F5000010000000104018C00740170018C010447
:104F60000000010101810171000E00180160018043
:104F7000010000000184010C013401440184010C92
:104F80000000000000000000000001003EFC4002A4
:104F900040020000000000000000FFFF00000000D1
:104FA00000000000400240023EFC01000000000042
:104FB00000000000600080008000400040002000F1
:104FC0002000000000000000000000000000F03F92
:104FD000000000000000F83F00000000000000009A
:104FE0000000004003B8E23F0000000000000000A5
:104FF00006D0CF43EBFD4C3E033333333333E33F33
:10500000FFAB6FDBB66DDB3F4D268F515555D53F5E
:1050100001411DA96074D13F65DBC9934A86CD3F2C
:10502000EF4E454A287ECA3F3E5555555555C53F1A
:1050300093BDBE166CC166BF2CDE25AF6A56113F0C
:10504000F16BD2C541BDBBBED0A4BE726937663E0E
:105050000000000000000000785000080000002060
:10506000B4000000280100082C510008B400002002
:10507000340B0000440100080000000000000000A4
:105080000000000000000000000000000000000020
:10509000010000000000000000000000000000000F
:1050A0000000000000000000000000000000000000
:1050B00000000000FE0100000000000000000000F1
:1050C00001000000000000000000000000000000DF
:1050D0000000000000000000000000000000F0419F
:1050E0000000484300004842000070410000803F3B
:1050F00000000000000000000000000000000000B0
:10510000000000000000000000000000000000009F
:10511000000000000000000000000000000000008F
:0C51200000000000000000000000000083
:04000005080000ED02
:00000001FF
